:100000000C9442000C946A000C946A000C946A00F0
:100010000C946A000C946A000C946A000C946A00B8
:100020000C946A000C946A000C946A000C946A00A8
:100030000C946A000C946A000C946A000C946A0098
:100040000C946A000C946A000C946A000C946A0088
:100050000C946A000C946A000C946A000C946A0078
:100060000C946A000C946A00320A350A380A3B0A7A
:100070003E0A410A440A5D0A470A4A0A4D0A500AE2
:10008000570AB20F11241FBECFEFD8E0DEBFCDBF9D
:1000900017E0A0E0B1E0EEE5F9E202C005900D92B4
:1000A000A43BB107D9F728E0A4EBB7E001C01D924B
:1000B000A732B207E1F710E0C2E4D0E004C0219714
:1000C000FE010E943111C134D107C9F70E945E0AB6
:1000D0000C94AD140C9400000197B9F56F3F7F4F5D
:1000E000A1F5A0911708B0911808B093DE07A0936E
:1000F000DD076091190870911A087093DC0760930E
:10010000DB0740911508509116085093DA07409389
:10011000D90720911308309114083093D807209301
:10012000D70780911108909112089093D607809379
:10013000D507EBECF7E0B183A0837383628355832B
:10014000448337832683918780870895982F907FF3
:1001500095B995B19E7F95B995B1926095B9EFEE3D
:10016000F0E03197F1F700C0000095B19D7F95B99F
:10017000FAE1FA95F1F700C020E1829FC001112455
:1001800085B985B18E7F85B985B1826085B98FEEDD
:1001900090E00197F1F700C0000085B18D7F85B92F
:1001A000EFECF7E03197F1F700C0000008958FE31E
:1001B0009CE90197F1F700C0000082E00E94A600D0
:1001C00088E20E94A6008CE00E94A60086E00E94C1
:1001D000A60081E00E94A60080E80E94A600089583
:1001E000982F907F95B995B1916095B995B192602E
:1001F00095B9EFEEF0E03197F1F700C0000095B14E
:100200009D7F95B9FAE1FA95F1F700C020E1829F50
:10021000C001112485B985B1816085B985B182603D
:1002200085B98FEE90E00197F1F700C0000085B12D
:100230008D7F85B9EFECF7E03197F1F700C0000052
:10024000089581E00E94A60080E80E94A60008951B
:10025000CF93DF93EC018881882321F021960E94BF
:10026000F000F9CFDF91CF910895611107C080317F
:1002700028F48F7080680E94A6001AC0613039F49B
:10028000803128F48F70806C0E94A60011C062300B
:1002900039F4803128F48F7080690E94A60008C06C
:1002A000633031F4803120F48F70806D0E94A6009D
:1002B0008CE00E94A6000895CF93DF936FEF680F44
:1002C00080E00E943501C0E0D0E0C031D10534F4B7
:1002D0008EE297E00E9428012196F7CFDF91CF911F
:1002E000089529B130E02095309502C035952795C5
:1002F0008A95E2F7C9018170992720FF02C081E049
:1003000090E008951092B90080E28093B8000895BB
:1003100084EA8093BC008091BC008823E4F70895B0
:1003200084E98093BC0008958093BB0084E88093A7
:10033000BC008091BC008823E4F7089584EC80938E
:10034000BC008091BC008823E4F78091BB00089535
:1003500084E88093BC008091BC008823E4F78091FE
:10036000BB0008950E9482010E94880180ED0E94D6
:10037000940187E00E94940180E00E9494010E9411
:1003800090018FE99FE00197F1F700C00000089508
:10039000CF93DF93EC010E94880180ED0E949401CD
:1003A00080E00E9494010E9490010E94880181EDEA
:1003B0000E9494010E949E0188830E949E0189836D
:1003C0000E949E018A830E949E018B830E949E014F
:1003D0008C830E949E018D830E94A8018E830E94BF
:1003E0009001DF91CF910895EF92FF920F931F93A9
:1003F000CF93DF93CDB7DEB7A5970FB6F894DEBFE6
:100400000FBECDBF0E9482010E94B201CE014F9665
:100410000E94C8014F8D842F90E09093260880930E
:10042000250838A1832F90E090932208809321081B
:1004300029A1822F90E090932408809323088DA116
:1004400090E09093200880931F088CA190E09093F7
:100450001E0880931D088BA190E090931C08809348
:100460001B081F924F931F923F931F922F9306EDED
:1004700015E01F930F93CE0101967C019F938F93FC
:100480000E94B311809120088F9380911F088F9351
:1004900080911E088F9380911D088F9380911C0876
:1004A0008F9380911B088F931F930F938E01055F8D
:1004B0001F4F1F930F930E94B31160E084E00E94CE
:1004C0003501C7010E94280161E084E00E943501E6
:1004D000C8010E9428010FB6F894DEBF0FBECDBF41
:1004E000A5960FB6F894DEBF0FBECDBFDF91CF91BA
:1004F0001F910F91FF90EF90089560E084E00E94BB
:10050000350185EE95E00E942801809100019091CF
:1005100001018130910549F461E083E00E943501D9
:100520008FEE95E00E94280108958230910549F4EC
:1005300061E081E00E9435018BEF95E00E94280187
:100540000895039741F461E081E00E9435018BE05A
:1005500096E00E942801089560E084E00E94350141
:100560008AE196E00E9428018091000190910101AA
:100570008130910549F461E081E00E94350185E216
:1005800096E00E9428010895029741F461E081E01D
:100590000E94350185E396E00E942801089560E0FD
:1005A00084E00E94350183ED96E00E94280180914D
:1005B0000001909101018130910549F461E083E0EF
:1005C0000E94350183E496E00E942801089582305C
:1005D000910549F461E082E00E9435018EE496E0E5
:1005E0000E9428010895039741F461E084E00E948D
:1005F00035018BE596E00E9428010895CF93DF93A3
:10060000CDB7DEB72A970FB6F894DEBF0FBECDBFC9
:1006100060E085E00E94350185E696E00E942801B1
:1006200061E087E00E9435014AE0BE016F5F7F4FC5
:1006300080910201909103010E948611CE010196E2
:100640000E9428012A960FB6F894DEBF0FBECDBFD8
:10065000DF91CF910895CF93DF93CDB7DEB72A977F
:100660000FB6F894DEBF0FBECDBF60E084E00E94FD
:10067000350182E796E00E94280161E087E00E9450
:1006800035014AE0BE016F5F7F4F80910401909178
:1006900005010E948611CE0101960E9428012A962A
:1006A0000FB6F894DEBF0FBECDBFDF91CF91089596
:1006B00060E083E00E9435018FE796E00E94280108
:1006C00080910001909101018130910549F461E030
:1006D00082E00E9435018BE896E00E94280108958F
:1006E0008230910549F461E082E00E94350187E99A
:1006F00096E00E94280108958330910549F461E055
:1007000082E00E94350186EA96E00E942801089561
:100710008430910549F461E082E00E94350182EB6A
:1007200096E00E9428010895059741F461E082E077
:100730000E94350181EC96E00E942801089560E056
:1007400081E00E9435018DEC96E00E9428018091A5
:100750000001909101018130910549F461E082E04E
:100760000E9435018CED96E00E94280108950297C1
:1007700041F461E081E00E94350189EE96E00E943B
:10078000280108958BB181608BB908958AE090E0CB
:10079000909303018093020182E390E0909305011E
:1007A0008093040181E08093CA070E94C2030895E8
:1007B0008BB18E7F8BB9089529B130E002C0359599
:1007C00027958A95E2F720FD02C081E0089580E038
:1007D00008950F931F93CF93DF93CDB7DEB72A977A
:1007E0000FB6F894DEBF0FBECDBF60E080E00E9480
:1007F000350188EF96E00E9428018091DC078F93F5
:100800008091DB078F9389E097E09F938F938E0110
:100810000F5F1F4F1F930F930E94B31161E087E09A
:100820000E943501C8010E9428018EE297E00E94D3
:10083000280185E090E00E94DC030F900F900F905C
:100840000F900F900F90882371F08091DB079091AB
:10085000DC07019668E170E00E94FE109093DC07CF
:100860008093DB0731C087E090E00E94DC0388239F
:10087000B1F08091DB079091DC0701979093DC0742
:100880008093DB0780912308909124089923E4F456
:1008900087E190E09093DC078093DB0715C086E04A
:1008A00090E00E94DC03882349F08091DB0790915F
:1008B000DC07909324088093230810C084E090E024
:1008C0000E94DC0381110AC02FEF81EE94E02150D9
:1008D00080409040E1F700C0000087CF2FEF81EE0D
:1008E00094E0215080409040E1F700C0000060E0BB
:1008F00080E00E9435018CE097E00E942801809101
:1009000022088F93809121088F9389E097E09F932D
:100910008F938E010F5F1F4F1F930F930E94B31190
:1009200061E087E00E943501C8010E9428018EE243
:1009300097E00E94280185E090E00E94DC030F9080
:100940000F900F900F900F900F90882371F080916F
:10095000DD079091DE0701966CE370E00E94FE10C7
:100960009093DE078093DD072DC087E090E00E9422
:10097000DC03882391F08091DD079091DE070197D9
:100980009093DE078093DD079923E4F48BE390E0F6
:100990009093DE078093DD0715C086E090E00E940B
:1009A000DC03882349F08091DD079091DE07909366
:1009B00022088093210810C084E090E00E94DC03AC
:1009C00081110AC02FEF81EE94E0215080409040C9
:1009D000E1F700C000008BCF2FEF81EE94E02150B3
:1009E00080409040E1F700C0000060E080E00E949D
:1009F00035018DE197E00E942801809116088F93C0
:100A0000809115088F9380E397E09F938F938E01D9
:100A10000F5F1F4F1F930F930E94B31161E087E098
:100A20000E943501C8010E9428018EE297E00E94D1
:100A3000280185E090E00E94DC030F900F900F905A
:100A40000F900F900F90882391F08091150890914E
:100A5000160801968F719078992324F40197806E7F
:100A60009F6F019690931608809315082EC087E01B
:100A700090E00E94DC03882399F080911508909102
:100A800016080197909316088093150818161906F2
:100A9000E4F08FE190E0909316088093150815C05C
:100AA00086E090E00E94DC03882349F080911508DD
:100AB000909116089093DA078093D90710C084E0CC
:100AC00090E00E94DC0381110AC02FEF81EE94E0D8
:100AD000215080409040E1F700C0000086CF2FEF0A
:100AE00081EE94E0215080409040E1F700C000008A
:100AF00060E080E00E94350183E397E00E942801D6
:100B0000809114088F93809113088F9380E397E06E
:100B10009F938F938E010F5F1F4F1F930F930E9420
:100B2000B31161E087E00E943501C8010E942801ED
:100B30008EE297E00E94280185E090E00E94DC03AD
:100B40000F900F900F900F900F900F90882371F0DF
:100B5000809113089091140801966DE070E00E9456
:100B6000FE1090931408809313082EC087E090E045
:100B70000E94DC03882399F0809113089091140857
:100B80000197909314088093130818161906E4F03F
:100B90008CE090E0909314088093130815C086E0D1
:100BA00090E00E94DC03882349F080911308909123
:100BB00014089093D8078093D70710C084E090E082
:100BC0000E94DC0381110AC02FEF81EE94E02150D6
:100BD00080409040E1F700C000008ACF2FEF81EE07
:100BE00094E0215080409040E1F700C0000060E0B8
:100BF00080E00E94350186E497E00E942801809100
:100C000012088F93809111088F9380E397E09F9350
:100C10008F938E010F5F1F4F1F930F930E94B3118D
:100C200061E085E00E943501C8010E9428018EE242
:100C300097E00E94280185E090E00E94DC030F907D
:100C40000F900F900F900F900F90882351F080918C
:100C50001108909112080196909312088093110840
:100C600025C087E090E00E94DC03882351F080914A
:100C7000110890911208019790931208809311081F
:100C800015C086E090E00E94DC03882349F0809143
:100C90001108909112089093D6078093D50710C041
:100CA00084E090E00E94DC0381110AC02FEF81EE06
:100CB00094E0215080409040E1F700C0000097CFC1
:100CC0000E94210188E597E00E9428012FEF89E624
:100CD00098E1215080409040E1F700C000000E9460
:100CE000210181E090E09093C9078093C8072A967C
:100CF0000FB6F894DEBF0FBECDBFDF91CF911F912D
:100D00000F910895EF92FF920F931F93CF93DF936C
:100D1000CDB7DEB72A970FB6F894DEBF0FBECDBFB2
:100D20007C0160E080E00E94350188EF96E00E943F
:100D30002801809110088F9380910F088F9380E392
:100D400097E09F938F938E010F5F1F4F1F930F9319
:100D50000E94B31161E087E00E943501C8010E9442
:100D600028018EE297E00E94280185E090E00E9431
:100D7000DC030F900F900F900F900F900F9088232F
:100D800071F080910F0890911008019668E170E071
:100D90000E94FE109093100880930F0831C087E0E6
:100DA00090E00E94DC03882391F080910F089091DD
:100DB000100801979093100880930F08992304F569
:100DC00087E190E09093100880930F0819C086E0A7
:100DD00090E00E94DC03882369F0F7013197EE0F61
:100DE000FF1FE150F84F80910F08909110089183F8
:100DF000808310C084E090E00E94DC0381110AC06F
:100E00002FEF81EE94E0215080409040E1F700C048
:100E1000000087CF2FEF81EE94E02150804090407A
:100E2000E1F700C0000060E080E00E9435018CE046
:100E300097E00E94280180910E088F9380910D0801
:100E40008F9380E397E09F938F938E010F5F1F4FE7
:100E50001F930F930E94B31161E087E00E94350158
:100E6000C8010E9428018EE297E00E94280185E0D7
:100E700090E00E94DC030F900F900F900F900F9066
:100E80000F90882371F080910D0890910E080196C3
:100E90006CE370E00E94FE1090930E0880930D08A2
:100EA00031C087E090E00E94DC03882391F08091BC
:100EB0000D0890910E08019790930E0880930D08ED
:100EC000992304F58BE390E090930E0880930D082E
:100ED00019C086E090E00E94DC03882369F0F701E6
:100EE0003197EE0FFF1FEF50F84F80910D08909152
:100EF0000E089183808310C084E090E00E94DC03A0
:100F000081110AC02FEF81EE94E021508040904083
:100F1000E1F700C0000087CF21E0E21AF108F701F5
:100F2000EE0FFF1FED51F84F80819181892B59F50C
:100F3000C701880F991FFC01ED51F84F81E090E047
:100F4000918380838091E1079091E20701969093CD
:100F5000E2078093E1070E9421018AE697E00E9460
:100F600028018FEF99E628E1815090402040E1F779
:100F700000C0000088E090E09093C9078093C80704
:100F80000E94210117C00E9421018AE697E00E9479
:100F900028018FEF99E628E1815090402040E1F749
:100FA00000C0000088E090E09093C9078093C807D4
:100FB0000E9421012A960FB6F894DEBF0FBECDBF66
:100FC000DF91CF911F910F91FF90EF900895EF92D5
:100FD000FF920F931F93CF93DF93CDB7DEB7649744
:100FE0000FB6F894DEBF0FBECDBF01978C01000F86
:100FF000111FF801E150F84F808191819F938F93E9
:101000000F2EF0E3EF2EF7E0FF2EF02DFF92EF9280
:10101000CE0101969F938F930E94B311F801EF5078
:10102000F84F808191819F938F93FF92EF92CE0131
:101030000B969F938F930E94B311F801ED51F84FD7
:10104000808191810FB6F894DEBF0FBECDBF0197AE
:10105000C9F461E085E00E943501CE0101960E944D
:10106000280161E087E00E9435018DE797E00E944A
:10107000280161E08AE00E943501CE010B960E94B2
:10108000280108C061E081E00E9435018FE797E008
:101090000E94280164960FB6F894DEBF0FBECDBF44
:1010A000DF91CF911F910F91FF90EF90089560E035
:1010B00083E00E9435018FE897E00E94280180912B
:1010C0000001909101018130910549F481E090E0A7
:1010D0009093E0078093DF070E94E707089582302E
:1010E000910549F482E090E09093E0078093DF0758
:1010F0000E94E70708958330910549F483E090E06A
:101100009093E0078093DF070E94E70708958430FB
:10111000910549F484E090E09093E0078093DF0725
:101120000E94E70708958530910549F485E090E035
:101130009093E0078093DF070E94E70708958630C9
:10114000910549F486E090E09093E0078093DF07F3
:101150000E94E7070895079741F487E090E0909395
:10116000E0078093DF070E94E70708950197FC01DD
:10117000EE0FFF1FED51F84F118210820E942101E6
:101180008AE997E00E9428012FEF89E698E1215033
:1011900080409040E1F700C000000E94210188E0FB
:1011A00090E09093C9078093C80708951816190610
:1011B00034F422E02A95F1F700C00197F7CF0895A3
:1011C0006F927F928F929F92AF92BF92CF92DF9257
:1011D000EF92FF920F931F93CF93DF936C01CB019C
:1011E0001092010110920001BA010E94FE105B01F1
:1011F00077231CF48FEFA81AB80AB594A794032E8E
:10120000000C440B550B60E879EA83E090E00E9403
:101210001211490100E010E0E12CF12CC501880F0A
:10122000991F081719070CF087C0E801F8013196DB
:10123000EE0FFF1FEC0DFD1D608171811616170664
:101240002CF4C4010E94FE107B011CC07723D4F44F
:101250009B01772324F422273327261B370BC40155
:10126000B9010E94FE10072E000C880B990B0E94FA
:10127000F10F20E030E040EC5FE30E9455100E9447
:10128000B90F7B0184E090E00E947101892B41F04D
:1012900088B1877F88B985E38A95F1F700004CC053
:1012A000CC0FDD1FCC0DDD1D28813981220F331FAE
:1012B000032E000C440B550B60E472E48FE090E0C9
:1012C0000E941211622E732EC701880F991F8E0D76
:1012D0009F1DFC01EE0FFF1F36952795ABE7B4E18C
:1012E0000E943711BC0176956795CF010E94EA10E4
:1012F000EB012097F1F084E090E00E947101892BCE
:1013000041F088B1877F88B985E38A95F1F70000BD
:1013100010C088B1886088B9862D972D0E94D608A4
:1013200088B1877F88B9862D972D0E94D60821978E
:10133000E0CF0E5F1F4F72CFDF91CF911F910F91C2
:10134000FF90EF90DF90CF90BF90AF909F908F90E5
:101350007F906F9008958091C2079091C30720916C
:10136000BA073091BB078217930759F0892B19F4FC
:1013700081E08093C6078FE39CE90197F1F700C0F5
:1013800000008091C2079091C3079093BB078093A0
:10139000BA0708958091C0079091C1072091B607C0
:1013A0003091B7078217930759F0892B19F481E020
:1013B0008093C7078FE39CE90197F1F700C0000015
:1013C0008091C0079091C1079093B7078093B607AB
:1013D00008958091BE079091BF072091B807309182
:1013E000B9078217930759F0892B19F481E080938C
:1013F000C5078FE39CE90197F1F700C000008091D9
:10140000BE079091BF079093B9078093B8070895DE
:101410008091BC079091BD072091B4073091B5072A
:101420008217930759F0892B19F481E08093C40740
:101430008FE39CE90197F1F700C000008091BC07A1
:101440009091BD079093B5078093B4070895E091FC
:10145000C807F091C907ED30F10578F5EC5CFF4F56
:101460000C9431110E94F40108950E947D020895A8
:101470000E94E90308950E94AC0208950E94CF02E1
:1014800008950E94FE0208950E942B0308950E9471
:10149000570808950E94580308950E949F030895D5
:1014A0008091DF079091E0070E9482060895809165
:1014B000DF079091E0070E94B6080895CF93DF936D
:1014C00000D000D000D0CDB7DEB781E08AB980EF80
:1014D0008BB98FEF84B987B1886087B90E94D70034
:1014E0000E94270A87E090E00E9471019093C30751
:1014F0008093C20786E090E00E9471019093BF073D
:101500008093BE0785E090E00E9471019093C1072F
:101510008093C00784E090E00E9471019093BD0722
:101520008093BC070E94AB090E94CA090E94E90986
:101530000E94080A809122088F93809121088F933E
:10154000809124088F93809123088F938BEA97E0F2
:101550009F938F93CE0101969F938F930E94B31117
:101560000FB6F894DEBF0FBECDBF00E010E0809153
:10157000DF079091E007801791079CF1F801EE0FCB
:10158000FF1FE150F84FE080F180CE0101960E94EC
:1015900068119C0164E670E00E94FE10E616F706F2
:1015A000E1F4F801EE0FFF1FEF50F84F0190F081CA
:1015B000E02DC90164E670E00E94FE10E817F9070B
:1015C00061F488E088B99FEF21E18AE791502040DB
:1015D0008040E1F700C0000001C018B80F5F1F4F46
:1015E000C6CF8091C707882349F02091C807309162
:1015F000C9072130310519F080E001C080E088235F
:10160000C9F01092C70782E090E00E945C018091CF
:1016100000019091010101979093010180930001D5
:10162000892B09F014C183E090E09093010180932D
:1016300000010DC19091C707992341F02091C8077F
:101640003091C9072230310509F4892F882319F018
:101650001092C707FCC09091C707992341F02091D1
:10166000C8073091C9072330310509F4892F882331
:10167000C9F01092C70782E090E00E945C0180915F
:101680000001909101010197909301018093000165
:10169000892B09F0DCC082E090E0909301018093F7
:1016A0000001D5C09091C707992341F02091C80748
:1016B0003091C9072430310509F4892F8823C9F0F6
:1016C0001092C70782E090E00E945C0180910001C7
:1016D0009091010101979093010180930001892B62
:1016E00009F0B5C083E090E0909301018093000180
:1016F000AEC09091C607992341F02091C807309160
:10170000C9072530310509F4892F882381F010920B
:10171000C60782E090E00E945C01809102019091F6
:1017200003010196909303018093020190C0909170
:10173000C707992341F02091C8073091C907263087
:10174000310509F4892F882381F01092C70782E0C0
:1017500090E00E945C018091040190910501019745
:10176000909305018093040172C09091C70799235B
:1017700041F02091C8073091C9072830310509F49C
:10178000892F8823C9F01092C70782E090E00E9459
:101790005C018091000190910101019790930101FA
:1017A00080930001892B09F052C087E090E090936C
:1017B0000101809300014BC09091C707992341F02C
:1017C0002091C8073091C9072930310509F4892FC4
:1017D0008823C1F01092C70782E090E00E945C016C
:1017E00080910001909101010197909301018093F4
:1017F0000001892B61F585E090E0909301018093D1
:10180000000125C09091C707992341F02091C80796
:101810003091C9072A30310509F4892F8823B9F09E
:101820001092C70782E090E00E945C018091000165
:101830009091010101979093010180930001892B00
:1018400031F482E090E09093010180930001809157
:10185000C607882349F02091C8073091C907213075
:10186000310519F080E001C080E08823C9F01092B2
:10187000C60782E090E00E945C0180910001909197
:10188000010101969093010180930001049709F0F2
:1018900014C181E090E090930101809300010DC19B
:1018A0009091C607992341F02091C8073091C9074C
:1018B0002230310509F4892F882319F01092C607C8
:1018C000FCC09091C607992341F02091C807309140
:1018D000C9072330310509F4892F8823C9F01092F4
:1018E000C60782E090E00E945C0180910001909127
:1018F000010101969093010180930001039709F083
:10190000DCC081E090E09093010180930001D5C09C
:101910009091C607992341F02091C8073091C907DB
:101920002430310509F4892F8823C9F01092C607A5
:1019300082E090E00E945C018091000190910101A1
:1019400001969093010180930001049709F0B5C0BE
:1019500081E090E09093010180930001AEC09091EE
:10196000C707992341F02091C8073091C907253056
:10197000310509F4892F882381F01092C70782E08E
:1019800090E00E945C018091020190910301019717
:10199000909303018093020190C09091C607992310
:1019A00041F02091C8073091C9072630310509F46C
:1019B000892F882381F01092C60782E090E00E9470
:1019C0005C018091040190910501019690930501BD
:1019D0008093040172C09091C607992341F0209131
:1019E000C8073091C9072830310509F4892F8823A9
:1019F000C9F01092C60782E090E00E945C018091DD
:101A000000019091010101969093010180930001E2
:101A1000089709F052C081E090E090930101809313
:101A200000014BC09091C607992341F02091C8074F
:101A30003091C9072930310509F4892F8823C1F075
:101A40001092C60782E090E00E945C018091000144
:101A500090910101019690930101809300010697F6
:101A600061F581E090E0909301018093000125C031
:101A70009091C607992341F02091C8073091C9077A
:101A80002A30310509F4892F8823B9F01092C6074E
:101A900082E090E00E945C01809100019091010140
:101AA00001969093010180930001039731F481E046
:101AB00090E090930101809300018091C5078823F5
:101AC00009F48AC11092C5078091C8079091C9078F
:101AD000009769F40E94210181E090E09093C9078A
:101AE0008093C807909301018093000175C18130F4
:101AF0009105B1F4209100013091010121303105AF
:101B000079F40E94210183E090E09093C9078093CB
:101B1000C80781E090E090930101809300015CC1CF
:101B20008130910581F42091000130910101223032
:101B3000310549F40E94210182E090E09093C907A9
:101B40008093C80749C181309105B1F4209100010B
:101B5000309101012330310579F40E94210184E0A4
:101B600090E09093C9078093C80781E090E090933C
:101B700001018093000130C18230910549F40E9437
:101B8000210181E090E09093C9078093C80724C1A8
:101B900083309105B1F42091000130910101213091
:101BA000310579F40E94210188E090E09093C90703
:101BB0008093C80781E090E0909301018093000139
:101BC0000BC183309105B1F42091000130910101E6
:101BD0002230310579F40E94210189E090E0909350
:101BE000C9078093C80781E090E09093010180933A
:101BF0000001F2C08430910581F420910001309100
:101C000001012130310549F40E94210185E090E075
:101C10009093C9078093C807DFC08430910581F491
:101C200020910001309101012230310549F40E94D8
:101C3000210186E090E09093C9078093C807CCC04B
:101C40008430910551F4209100013091010123303D
:101C5000310519F40E94C603BFC08530910579F49F
:101C60000E94210184E090E09093C9078093C80707
:101C700081E090E09093010180930001ADC0863037
:101C8000910579F40E94210184E090E09093C907C6
:101C90008093C80782E090E0909301018093000157
:101CA0009BC08730910579F40E94210183E090E088
:101CB0009093C9078093C80781E090E09093010159
:101CC0008093000189C08830910579F40E94210138
:101CD0008AE090E09093C9078093C80781E090E084
:101CE000909301018093000177C08A30910581F4BF
:101CF00020910001309101012130310549F40E9409
:101D000021018BE090E09093C9078093C80764C0DD
:101D10008A309105B1F42091000130910101223007
:101D2000310579F40E9421018CE090E09093C9077D
:101D30008093C80781E090E09093010180930001B7
:101D40004BC0099709F048C08091000190910101B2
:101D50008130910559F42CE630E042E050E060EC2F
:101D600070E086E195E00E94E00836C0823091057F
:101D700059F426E430E042E050E060E171E086E0B2
:101D800094E00E94E00828C08330910559F42CE8C3
:101D900030E042E050E060E071E086E093E00E94D5
:101DA000E0081AC08430910559F420E930E042E09F
:101DB00050E064EF70E082E192E00E94E0080CC025
:101DC000059751F42CE630E042E050E06CE071E021
:101DD00086E091E00E94E0088091C407882309F41E
:101DE0007FCB1092C4078091C8079091C9070097D4
:101DF00079F48091CA07882329F01092CA070E94BB
:101E0000D8036ECB81E08093CA070E94C20368CBDF
:101E10008130910539F40E9421011092C907109276
:101E2000C8075ECB8230910579F40E94210181E0E0
:101E300090E09093C9078093C80782E090E0909368
:101E40000101809300014CCB8330910569F40E941D
:101E5000210181E090E09093C9078093C807909397
:101E60000101809300013CCB8430910579F40E94FC
:101E7000210181E090E09093C9078093C80783E037
:101E800090E090930101809300012ACB8530910569
:101E900079F40E94210184E090E09093C907809337
:101EA000C80781E090E0909301018093000118CB76
:101EB0008630910579F40E94210184E090E09093AE
:101EC000C9078093C80782E090E090930101809356
:101ED000000106CB8730910579F40E94210183E04F
:101EE00090E09093C9078093C80781E090E09093B9
:101EF000010180930001F4CA8830910579F40E94B1
:101F0000210183E090E09093C9078093C80782E0A5
:101F100090E09093010180930001E2CA893091051D
:101F200079F40E94210183E090E09093C9078093A7
:101F3000C80782E090E09093010180930001D0CA2D
:101F40000A9709F0CDCA0E94210188E090E09093A1
:101F5000C9078093C80781E090E0909301018093C6
:101F60000001BECA6FEF7FEF81E090E00E946C003D
:101F700008950E94C00F6894B1110C944F100895F9
:101F80000E94341088F09F5798F0B92F9927B751C5
:101F9000B0F0E1F0660F771F881F991F1AF0BA950D
:101FA000C9F714C0B13091F00E944E10B1E008950D
:101FB0000C944E10672F782F8827B85F39F0B93FFF
:101FC000CCF3869577956795B395D9F73EF49095C0
:101FD0008095709561957F4F8F4F9F4F0895E8943E
:101FE00009C097FB3EF490958095709561957F4F61
:101FF0008F4F9F4F9923A9F0F92F96E9BB2793950F
:10200000F695879577956795B795F111F8CFFAF41E
:10201000BB0F11F460FF1BC06F5F7F4F8F4F9F4F4F
:1020200016C0882311F096E911C0772321F09EE8AD
:10203000872F762F05C0662371F096E8862F70E013
:1020400060E02AF09A95660F771F881FDAF7880FED
:102050009695879597F9089557FD9058440F551F09
:1020600059F05F3F71F04795880F97FB991F61F01A
:102070009F3F79F087950895121613061406551F91
:10208000F2CF4695F1DF08C0161617061806991FFD
:10209000F1CF86957105610508940895E894BB27F2
:1020A00066277727CB0197F908950E9468100C9452
:1020B000D9100E94CB1038F00E94D21020F0952346
:1020C00011F00C94C2100C94C81011240C944F10F1
:1020D0000E942C1070F3959FC1F3950F50E0551F8F
:1020E000629FF001729FBB27F00DB11D639FAA276D
:1020F000F00DB11DAA1F649F6627B00DA11D661FBC
:10210000829F2227B00DA11D621F739FB00DA11DDC
:10211000621F839FA00D611D221F749F3327A00D96
:10212000611D231F849F600D211D822F762F6A2F32
:1021300011249F5750409AF0F1F088234AF0EE0F97
:10214000FF1FBB1F661F771F881F91505040A9F7C4
:102150009E3F510580F00C94C2100C944F105F3FCD
:10216000E4F3983ED4F3869577956795B795F79500
:10217000E7959F5FC1F7FE2B880F911D9695879578
:1021800097F9089597F99F6780E870E060E00895F7
:102190009FEF80EC089500240A941616170618067F
:1021A0000906089500240A9412161306140605065B
:1021B0000895092E0394000C11F4882352F0BB0FEC
:1021C00040F4BF2B11F460FF04C06F5F7F4F8F4F4F
:1021D0009F4F0895AA1BBB1B51E107C0AA1FBB1F3D
:1021E000A617B70710F0A61BB70B881F991F5A95A3
:1021F000A9F780959095BC01CD01089597FB072E16
:1022000016F4009407D077FD09D00E94EA1007FC6D
:1022100005D03EF4909581959F4F089570956195F6
:102220007F4F0895052E97FB1EF400940E942911FC
:1022300057FD07D00E94461107FC03D04EF40C94C2
:10224000291150954095309521953F4F4F4F5F4F45
:10225000089590958095709561957F4F8F4F9F4F12
:102260000895EE0FFF1F0590F491E02D0994A29FB1
:10227000B001B39FC001A39F700D811D1124911D5A
:10228000B29F700D811D1124911D0895A1E21A2E97
:10229000AA1BBB1BFD010DC0AA1FBB1FEE1FFF1F0A
:1022A000A217B307E407F50720F0A21BB30BE40B5A
:1022B000F50B661F771F881F991F1A9469F76095A1
:1022C0007095809590959B01AC01BD01CF0108955B
:1022D000FC0188279927E89421912032E9F32930DD
:1022E00010F02E30C8F32B3241F02D3239F46894BF
:1022F00004C00E949111820F911D219120532A3018
:10230000C0F31EF4909581959F4F0895BB274A30E6
:1023100031F4992322F4BDE2909581959F4F0C945E
:102320009A117AE0979F902D879F802D910D11240F
:102330000895BB27FB015527AA27880F991FAA1FBD
:10234000A41710F0A41B83955051B9F7A05DAA33D0
:1023500008F0A95DA193009779F7B111B19311929B
:10236000CB010C94CC13AEE0B0E0E9EBF1E10C94BE
:1023700084140D891E8986E08C831A8309838FEF6C
:102380009FE79E838D83AE01475E5F4F6F89788D97
:10239000CE0101960E94D511EF81F885E00FF11F63
:1023A00010822E96E4E00C94A014ABE0B0E0EBEDCC
:1023B000F1E10C9476146C017B018A01FC01178217
:1023C0001682838181FFCCC1CE0101963C01F601CA
:1023D0009381F70193FD859193FF81917F0188237C
:1023E00009F4BAC1853239F493FD859193FF819147
:1023F0007F01853229F4B60190E00E94DC13E7CF1B
:10240000912C212C312CFFE1F315D8F08B3279F08F
:1024100038F4803279F08332A1F4232D20611DC07D
:102420008D3261F0803369F4232D216016C0832D35
:102430008260382EE32DE4603E2E2AC0F32DF86032
:102440001DC037FC2DC020ED280F2A3040F08E3201
:10245000B9F436FC81C1232D2064322E19C036FE1A
:1024600006C08AE0989E200D1124922E11C0EAE049
:102470002E9E200D1124222EF32DF0623F2E08C037
:102480008C3621F4832D8068382E02C0883641F4C2
:10249000F70193FD859193FF81917F018111B3CF66
:1024A000982F9F7D9554933028F40C5F1F4F9FE326
:1024B00099830DC0833631F0833771F0833509F08D
:1024C00059C021C0F801808189830E5F1F4F882485
:1024D0008394912C530113C02801F2E04F0E511C3C
:1024E000F801A080B18036FE03C0692D70E002C003
:1024F0006FEF7FEFC5010E94C1134C018201F32DE4
:10250000FF773F2E16C0280122E0420E511CF80131
:10251000A080B18036FE03C0692D70E002C06FEF6D
:102520007FEFC5010E94B6134C01F32DF0683F2EDA
:10253000820133FC1BC0822D90E088169906B0F40E
:10254000B60180E290E00E94DC132A94F4CFF501FA
:1025500037FC859137FE81915F01B60190E00E94C2
:10256000DC1321102A9421E0821A9108811491042D
:1025700071F7E8C0843611F0893641F5F80137FE6D
:1025800007C060817181828193810C5F1F4F08C0F9
:1025900060817181072E000C880B990B0E5F1F4F15
:1025A000F32DFF763F2E97FF09C09095809570958B
:1025B00061957F4F8F4F9F4FF0683F2E2AE030E0AC
:1025C000A3010E941814882E861845C0853731F45F
:1025D000232D2F7EB22E2AE030E025C0932D997F47
:1025E000B92E8F36C1F018F4883579F0B5C0803730
:1025F00019F0883721F0B0C0E92FE061BE2EB4FE9B
:102600000DC0FB2DF460BF2E09C034FE0AC0292F77
:102610002660B22E06C028E030E005C020E130E0A0
:1026200002C020E132E0F801B7FE07C0608171818D
:10263000828193810C5F1F4F06C06081718180E0B1
:1026400090E00E5F1F4FA3010E941814882E861879
:10265000FB2DFF773F2E36FE0DC0232D2E7FA22EA1
:10266000891458F434FE0BC032FC09C0832D8E7ED1
:10267000A82E05C0B82CA32C03C0B82C01C0B92CBF
:10268000A4FE0FC0FE01E80DF11D8081803321F40E
:102690009A2D997EA92E09C0A2FE06C0B394B394C8
:1026A00004C08A2D867809F0B394A3FC11C0A0FE63
:1026B00006C0B21488F4280C922C9B180EC0B214D9
:1026C00060F4B60180E290E00E94DC13B394F7CF8F
:1026D000B21418F42B1802C0982C212CA4FE10C0A0
:1026E000B60180E390E00E94DC13A2FE17C0A1FCBB
:1026F00003C088E790E002C088E590E0B6010CC016
:102700008A2D867859F0A1FE02C08BE201C080E2DA
:10271000A7FC8DE2B60190E00E94DC13891438F426
:10272000B60180E390E00E94DC139A94F7CF8A947C
:10273000F301E80DF11D8081B60190E00E94DC13E9
:102740008110F5CF222009F442CEB60180E290E05C
:102750000E94DC132A94F6CFF6018681978102C08D
:102760008FEF9FEF2B96E2E10C949214FC01059001
:10277000615070400110D8F7809590958E0F9F1F83
:102780000895FC016150704001900110D8F78095C8
:1027900090958E0F9F1F0895DC01FC01672F7191AA
:1027A0007723E1F7329704C07C916D937083629137
:1027B000AE17BF07C8F308950F931F93CF93DF930E
:1027C000FB01238121FD03C08FEF9FEF2CC022FF6F
:1027D00016C046815781248135814217530744F43E
:1027E000A081B1819D012F5F3F4F318320838C9366
:1027F000268137812F5F3F4F3783268314C08B019B
:10280000EC01FB010084F185E02D0995892BE1F6AF
:10281000D80116968D919C911797019617969C93C7
:102820008E931697CE01DF91CF911F910F9108954E
:10283000FA01AA27283051F1203181F1E8946F93F1
:102840006E7F6E5F7F4F8F4F9F4FAF4FB1E03ED097
:10285000B4E03CD0670F781F891F9A1FA11D680F35
:10286000791F8A1F911DA11D6A0F711D811D911D68
:10287000A11D20D009F468943F912AE0269F1124DD
:102880003019305D3193DEF6CF010895462F477041
:10289000405D4193B3E00FD0C9F7F6CF462F4F709C
:1028A000405D4A3318F0495D31FD4052419302D0FA
:1028B000A9F7EACFB4E0A6959795879577956795A0
:1028C000BA95C9F700976105710508959B01AC01A0
:1028D0000A2E06945795479537952795BA95C9F7C7
:1028E000620F731F841F951FA01D08952F923F92A2
:1028F0004F925F926F927F928F929F92AF92BF9210
:10290000CF92DF92EF92FF920F931F93CF93DF93BB
:10291000CDB7DEB7CA1BDB0B0FB6F894DEBF0FBE18
:10292000CDBF09942A88398848885F846E847D8465
:102930008C849B84AA84B984C884DF80EE80FD8067
:102940000C811B81AA81B981CE0FD11D0FB6F894DD
:0E295000DEBF0FBECDBFED010895F894FFCF9E
:10295E0001000A000A0026010400B8010400B801B3
:10296E000400000008004A010800EE0102005D01AB
:10297E0004000B0204000B020400000008004A01D0
:10298E000800EE01020026010400B8010400B8019F
:10299E000400000008004A010800EE0102005D017B
:1029AE0004000B0204000B020400000008004A01A0
:1029BE000800EE010200260108005D0108004B022E
:1029CE000200260108005D0108004B02020093027E
:1029DE00FCFFBA020800930208009302080093025B
:1029EE0008000B020800B8010200B801040026011D
:1029FE0004005D01080088010800B801FEFFB8015F
:102A0E000400260104005D010800880108004A0147
:102A1E00FEFF260108005D0108004B0202002601A0
:102A2E0008005D0108004B0202009302FCFFBA028F
:102A3E0008009302080093020800930208000B029C
:102A4E000800B8010200B8010400260104005D016F
:102A5E00080088010800B8010200B8010400260130
:102A6E000100260104008801FCFFD2010800B80114
:102A7E000400880102004B0204000B02FEFFB801A5
:102A8E00FEFF8801FCFFD2010800B80104005D01C1
:102A9E0002009F0104002601FFFF260104008801A9
:102AAE00FCFFD2010800B8010400880102004B02AD
:102ABE000400BA020200930204006E020200EE014C
:102ACE0004006E02FCFF4B0208002A0204001501EE
:102ADE000200EE0104008801FFFFD20104004B0248
:102AEE000200D20104004B020200D20104006E0269
:102AFE0002004B0204002A020200B8010400D201B7
:102B0E00FCFF4B0208002A020400150102002601F8
:102B1E0004004B02FFFF00000400D20104004B0230
:102B2E000200D20104004B020200D2010400BA02DC
:102B3E000200930204006E020200EE0104006E0217
:102B4E00FCFF4B0208002A02040015010200D2010C
:102B5E0004008801FFFFEE01FCFF9302FCFFEE0173
:102B6E00FCFF9302FCFFEE0108009302FCFFEE0156
:102B7E00080000000800D2010800EE010800EE0176
:102B8E000800D2010800EE010800B801080000009C
:102B9E0008009F010800B80108008801080088019C
:102BAE0004004A01FEFFEE01FCFF9302FCFFEE0162
:102BBE00FCFF9302FCFFEE0108009302FCFFEE0106
:102BCE00080000000800D2010800EE010800B8015C
:102BDE00FCFFB801FCFF9F010800B801FCFF4B028F
:102BEE0008000B02FCFFEE01FCFFB801FCFFEE013A
:102BFE00FCFF9302FCFFEE01FCFF9302FCFFEE01D3
:102C0E0008009302FCFFEE01080000000800D2014C
:102C1E000800EE0108004B0204004B02FCFFEE011F
:102C2E000800B801FCFF8801FCFF4A01FEFF4A01C3
:102C3E00020088010200EE0102004B020200BA02FD
:102C4E00FCFF9302FCFFD2010800D2010800EE0146
:102C5E0004008801040088010800D20104000B0260
:102C6E0008004B02F8FF6E0210004B0208000B0228
:102C7E000400B80108005D01F8FF88011000B801DA
:102C8E000800D2010400880108008801F8FF7201D3
:102C9E00100088010800B801040072010800260126
:102CAE00040088010800D20104000B0208004B0248
:102CBE00F8FF6E0210004B0208000B020400B80170
:102CCE0008005D01F8FF88011000B8010800D2016C
:102CDE00F8FFB8011000880108007201F8FF4A01E0
:102CEE001000720108008801FEFFBA020200930272
:102CFE0010004B0208000B020400B80108005D0131
:102D0E00F8FF88011000B8010800D2010400880104
:102D1E0008008801F8FF7201100088010800B80150
:102D2E0004007201080026010400BA020200930298
:102D3E0010004B0208000B020400B80108005D01F0
:102D4E00F8FF88011000B8010800D201F8FFB801A1
:102D5E001000880108007201F8FF4A01100072018C
:102D6E0008008801FEFF4A010200880104002601C6
:102D7E00020006010800260108004A01020088012F
:102D8E0004002601FEFF4A010200880104004B02E6
:102D9E0002000B020400880102005D0108004A01D6
:102DAE0008002601FEFF4A010200880104002601E8
:102DBE00020006010800260108004A0102008801EF
:102DCE0004002601FEFF4A010200880104004B02A6
:102DDE0002000B020400880102005D0108004A0196
:102DEE0008005D0108004A010800060102005D01AD
:102DFE0002004A010800260108004A0108002601C7
:102E0E000800DC000200880102005D0108004A0192
:102E1E0008005D0108004A010800060104005D017A
:102E2E0004000B02FEFF253032783A253032783A14
:102E3E0025303278004D41494E204D454E55003CCF
:102E4E003C20416C61726D203E3E003C3C446174FE
:102E5E006520262054696D653E3E003C3C2053653E
:102E6E007474696E6773203E3E00414C41524D2092
:102E7E004D454E55003C4D616E61676520416C615C
:102E8E00726D733E003C416C61726D20546F6E65C5
:102E9E00733E003C3C566F6C756D653E3E003C3C8F
:102EAE00436F6E74726173743E3E003C3C526573A8
:102EBE0065743E3E002D2D2D566F6C756D652D2D56
:102ECE002D002D2D436F6E74726173742D2D004184
:102EDE004C41524D20544F4E4553003C5A656C6444
:102EEE0061204154313E003C477265656E20536C43
:102EFE00617665733E003C53746172205761727344
:102F0E003E003C486172727920506F747465723E57
:102F1E00003C5A656C6461204154323E00414C4184
:102F2E00524D2053455454494E4753003C45646915
:102F3E007420416C61726D3E003C44656C65746535
:102F4E0020416C61726D3E00202020456E746572CA
:102F5E002048723A20202020002578002020456E3F
:102F6E00746572204D696E73203A20200020202057
:102F7E00456E74657220446174653A2020202000ED
:102F8E002564002020456E746572204D6F6E746846
:102F9E003A20202020002020456E7465722059654D
:102FAE0061723A2020202000202054696D6520692E
:102FBE00732073657421202020002020416C6172E3
:102FCE006D2069732073657421202020003A003C27
:102FDE003C456D70747920416C61726D3E3E0041CE
:102FEE004C41524D204C495354002020416C61728B
:102FFE006D2044656C65746564200025303278253B
:04300E0030327800E4
:00000001FF
