:100000000C943F000C945C000C945C000C945C001D
:100010000C945C000C945C000C945C000C945C00F0
:100020000C945C000C945C000C945C000C945C00E0
:100030000C945C000C945C000C945C000C945C00D0
:100040000C945C000C945C000C945C000C945C00C0
:100050000C945C000C945C000C945C000C945C00B0
:100060000C945C000C945C00AF03B203B503B803BE
:10007000BB03BE03C103C403C703CA03CD031124DA
:100080001FBECFEFD8E0DEBFCDBF12E0A0E0B1E0F1
:10009000ECE3F0E102C005900D92A439B107D9F765
:1000A00022E0A4E9B2E001C01D92AB3AB207E1F749
:1000B0000E94D3030C941C080C940000982F907F8E
:1000C00095B92898299AEFEEF0E03197F1F700C042
:1000D00000002998FAE1FA95F1F700C020E1829F2B
:1000E000C001112485B92898299A8FEE90E00197D4
:1000F000F1F700C000002998EFECF7E03197F1F735
:1001000000C0000008958FE39CE90197F1F700C05B
:10011000000082E00E945E0088E20E945E008CE0A7
:100120000E945E0086E00E945E0081E00E945E0008
:1001300080E80E945E000895982F907F95B9289AD4
:10014000299AEFEEF0E03197F1F700C0000029980E
:10015000FAE1FA95F1F700C020E1829FC001112475
:1001600085B9289A299A8FEE90E00197F1F700C09F
:1001700000002998EFECF7E03197F1F700C000009C
:10018000089581E00E945E0080E80E945E0008956C
:10019000CF93DF93EC018881882331F021960E9470
:1001A0009C0089918111FBCFDF91CF91089561115E
:1001B00007C08031F8F48F7080680E945E001AC01A
:1001C000613039F48031B0F48F70806C0E945E0031
:1001D00011C0623039F4803168F48F7080690E94F8
:1001E0005E0008C0633031F4803120F48F70806D80
:1001F0000E945E008CE00E945E000895CF93DF9322
:100200006FEF680F80E00E94D700C0E1D0E086E089
:1002100091E00E94C8002197D1F7DF91CF91089516
:1002200029B130E020953095A90102C05595479538
:100230008A95E2F7CA0181709927089560E086E007
:100240000E94D70088E091E00E94C80061E084E04D
:100250000E94D7008EE091E00E94C800089560E0FF
:1002600084E00E94D70089E191E00E94C80080915B
:100270000001909101018130910549F461E083E032
:100280000E94D70083E291E00E94C8000895823066
:10029000910549F461E081E00E94D7008FE291E08E
:1002A0000E94C8000895039741F461E081E00E9434
:1002B000D7008FE391E00E94C800089560E086E0D7
:1002C0000E94D70088E091E00E94C80061E084E0CD
:1002D0000E94D7008EE091E00E94C800089560E07F
:1002E00084E00E94D7008EE491E00E94C8008091D3
:1002F0000001909101018130910549F461E081E0B4
:100300000E94D70089E591E00E94C80008958230DC
:10031000910549F461E081E00E94D70089E691E00F
:100320000E94C8000895039741F461E082E00E94B2
:10033000D70089E791E00E94C800089560E084E05A
:100340000E94D7008EE692E00E94C80080910001D2
:10035000909101018130910549F461E083E00E94B0
:10036000D70087E891E00E94C80008958230910587
:1003700049F461E082E00E94D70082E991E00E94A6
:10038000C8000895039741F461E084E00E94D7001B
:100390008FE991E00E94C8000895CF93DF93CDB715
:1003A000DEB72A970FB6F894DEBF0FBECDBF60E070
:1003B00085E00E94D70089EA91E00E94C80061E0D0
:1003C00087E00E94D7004AE0BE016F5F7F4F8091B7
:1003D0000201909103010E94E707CE0101960E945D
:1003E000C8002A960FB6F894DEBF0FBECDBFDF91CE
:1003F000CF910895CF93DF93CDB7DEB72A970FB68D
:10040000F894DEBF0FBECDBF60E084E00E94D7004D
:1004100086EB91E00E94C80061E087E00E94D7006F
:100420004AE0BE016F5F7F4F80910401909105010A
:100430000E94E707CE0101960E94C8002A960FB6D7
:10044000F894DEBF0FBECDBFDF91CF91089560E07D
:1004500086E00E94D70088E091E00E94C80061E039
:1004600084E00E94D7008EE091E00E94C8000895C9
:1004700060E083E00E94D70083EC91E00E94C80016
:1004800080910001909101018130910549F461E072
:1004900083E00E94D7008EEC91E00E94C80008958E
:1004A0008230910549F461E083E00E94D70089ED34
:1004B00091E00E94C80008958330910549F461E0FD
:1004C00083E00E94D70084EE91E00E94C800089566
:1004D0008430910549F461E083E00E94D7008FEEFB
:1004E00091E00E94C80008958530910549F461E0CB
:1004F00083E00E94D7008AEF91E00E94C80008952F
:100500008630910549F461E083E00E94D70085E0E0
:1005100092E00E94C8000895079741F461E083E0EB
:100520000E94D70080E192E00E94C800089560E038
:1005300083E00E94D7008BE192E00E94C800809186
:100540000001909101018130910549F461E082E060
:100550000E94D70087E292E00E94C800089582308E
:10056000910549F461E082E00E94D70084E392E0C3
:100570000E94C80008958330910549F461E082E04B
:100580000E94D70081E492E00E94C8000895843060
:10059000910549F461E082E00E94D7008EE492E088
:1005A0000E94C8000895059741F461E082E00E942E
:1005B000D7008BE592E00E94C800089560E081E0DA
:1005C0000E94D70088E692E00E94C8008091000156
:1005D000909101018130910549F461E082E00E942F
:1005E000D70087E792E00E94C8000895029741F47F
:1005F00061E081E00E94D70084E892E00E94C80098
:10060000089560E086E00E94D70088E091E00E94B3
:10061000C80061E084E00E94D7008EE091E00E9473
:10062000C8000895589A08958AE090E090930301D5
:100630008093020182E390E090930501809304018E
:1006400081E08093AA020E941203089558980895A9
:100650008091A2029091A30220919A0230919B0274
:100660008217930759F0892B19F481E08093A60231
:100670008FE39CE90197F1F700C000008091A2028E
:100680009091A30290939B0280939A020895809187
:10069000A0029091A10220919602309197028217B8
:1006A000930759F0892B19F481E08093A7028FE317
:1006B0009CE90197F1F700C000008091A0029091A1
:1006C000A1029093970280939602089580919E02D2
:1006D00090919F022091980230919902821793077E
:1006E00059F0892B19F481E08093A5028FE39CE9EE
:1006F0000197F1F700C0000080919E0290919F0247
:100700009093990280939802089580919C02909111
:100710009D0220919402309195028217930759F01F
:10072000892B19F481E08093A4028FE39CE901975F
:10073000F1F700C0000080919C0290919D0290937F
:100740009502809394020895E091A802F091A90285
:10075000EB30F10528F5EC5CFF4F0C94E1070E94AB
:100760001E0108950E942F0108950E945E010895C0
:100770000E946F0108950E949E0108950E94CD017C
:1007800008950E94FA0108950E94270208950E9488
:10079000380208950E94970208950E94DE0208958B
:1007A0000E940103089581E08AB980EF8BB98FEF31
:1007B00084B90E948300C1E0D0E003E010E06894B7
:1007C000CC24C3F8D12C0F2EFAE0EF2EF12CF02D13
:1007D0000F2EF9E0AF2EB12CF02D992493940E94A6
:1007E000A40387E090E00E9410019093A3028093FD
:1007F000A20286E090E00E94100190939F028093F5
:100800009E0285E090E00E9410019093A1028093E7
:10081000A00284E090E00E94100190939D028093DA
:100820009C020E9428030E9447030E9466030E94C4
:1008300085038091A7028823E1F08091A80290911E
:10084000A9020197B1F41092A70282E090E00E9401
:10085000FE008091000190910101019729F0909391
:10086000010180930001F1C0109301010093000188
:10087000ECC08091A702882379F08091A802909122
:10088000A902029749F41092A7028091A6028091D2
:10089000A602811106C108C18091A7028823E1F058
:1008A0008091A8029091A9020397B1F41092A70237
:1008B00082E090E00E94FE00809100019091010191
:1008C000019729F09093010180930001BEC010931D
:1008D000010100930001B9C08091A7028823E1F0D3
:1008E0008091A8029091A9020497B1F41092A702F6
:1008F00082E090E00E94FE00809100019091010151
:10090000019729F090930101809300019EC01093FC
:1009100001010093000199C08091A6028823B1F0E3
:100920008091A8029091A902059781F41092A602E5
:1009300082E090E00E94FE0080910201909103010C
:10094000019690930301809302017FC08091A702DA
:100950008823B1F08091A8029091A902069781F4B2
:100960001092A70282E090E00E94FE0080910401B4
:10097000909105010197909305018093040165C052
:100980008091A7028823F1F08091A8029091A9029A
:100990000897C1F41092A70282E090E00E94FE0046
:1009A0008091000190910101019729F0909301013C
:1009B000809300014AC087E090E09093010180930A
:1009C000000143C08091A7028823F1F08091A80222
:1009D0009091A9020997C1F41092A70282E090E0D9
:1009E0000E94FE008091000190910101019729F081
:1009F000909301018093000128C085E090E09093DE
:100A000001018093000121C08091A7028823E9F0B1
:100A10008091A8029091A9020A97B9F41092A702B6
:100A200082E090E00E94FE0080910001909101011F
:100A3000019729F0909301018093000106C082E0A4
:100A400090E090930101809300018091A602882399
:100A5000F1F08091A8029091A9020197C1F410923F
:100A6000A60282E090E00E94FE0080910001909139
:100A7000010101968430910529F090930101809342
:100A80000001EFC0D0930101C0930001EAC0809142
:100A9000A602882349F08091A8029091A9020297AA
:100AA00019F41092A602DDC08091A6028823F1F00D
:100AB0008091A8029091A9020397C1F41092A60216
:100AC00082E090E00E94FE0080910001909101017F
:100AD00001968430910529F09093010180930001E3
:100AE000C0C0D0930101C0930001BBC08091A60299
:100AF0008823F1F08091A8029091A9020497C1F493
:100B00001092A60282E090E00E94FE008091000117
:100B10009091010101968430910529F09093010193
:100B2000809300019EC0D0930101C093000199C041
:100B30008091A7028823B1F08091A8029091A90228
:100B4000059781F41092A70282E090E00E94FE00D7
:100B5000809102019091030101979093030180938A
:100B600002017FC08091A6028823B1F08091A80283
:100B70009091A902069781F41092A60282E090E07B
:100B80000E94FE00809104019091050101969093CE
:100B900005018093040165C08091A6028823F1F0CD
:100BA0008091A8029091A9020897C1F41092A60220
:100BB00082E090E00E94FE0080910001909101018E
:100BC00001968830910529F09093010180930001EE
:100BD00048C0D0930101C093000143C08091A60298
:100BE0008823F1F08091A8029091A9020997C1F49D
:100BF0001092A60282E090E00E94FE008091000127
:100C00009091010101968630910529F090930101A0
:100C10008093000126C0D0930101C093000121C040
:100C20008091A6028823E9F08091A8029091A90200
:100C30000A97B9F41092A60282E090E00E94FE00AA
:100C4000809100019091010101968330910529F076
:100C5000909301018093000104C0D0930101C093DF
:100C600000018091A502882309F4FEC01092A5021C
:100C70008091A8029091A902009759F40E94C100A6
:100C8000D093A902C093A802D0930101C0930001A0
:100C9000EBC08130910571F58091000190910101C7
:100CA0008130910559F40E94C1001093A90200936C
:100CB000A802D0930101C0930001D6C082309105F3
:100CC00049F40E94C10082E090E09093A9028093D1
:100CD000A802CAC0039709F0C7C00E94C10084E0FF
:100CE00090E09093A9028093A802D0930101C09351
:100CF0000001BAC08230910539F40E94C100D0933E
:100D0000A902C093A802B0C08330910561F580911B
:100D10000001909101018130910549F40E94C100C8
:100D200087E090E09093A9028093A8029DC0823052
:100D3000910559F40E94C100D092A902C092A80264
:100D4000D0930101C09300018FC0039709F08CC0BC
:100D50000E94C100B092A902A092A802D093010102
:100D6000C093000181C08430910511F5809100018C
:100D7000909101018130910549F40E94C10085E004
:100D800090E09093A9028093A8026EC082309105F2
:100D900049F40E94C10086E090E09093A9028093FC
:100DA000A80262C0039709F05FC00E9414035CC0F0
:100DB0008530910569F40E94C10084E090E0909331
:100DC000A9028093A802D0930101C09300014CC0F6
:100DD0008630910579F40E94C10084E090E0909300
:100DE000A9028093A80282E090E090930101809391
:100DF00000013AC08730910559F40E94C100109358
:100E0000A9020093A802D0930101C09300012CC055
:100E10008830910559F40E94C100F092A902E09235
:100E2000A802D0930101C09300011EC00A97E1F40B
:100E300080910001909101018130910549F40E9457
:100E4000C10087E090E09093A9028093A8020CC0B3
:100E5000029751F40E94C100D092A902C092A80248
:100E6000D0930101C09300018091A402882309F46A
:100E7000B6CC1092A4028091A8029091A90200978A
:100E800071F48091AA02882329F01092AA020E948C
:100E90002603A5CC9092AA020E941203A0CC813016
:100EA000910539F40E94C1001092A9021092A80283
:100EB00096CC8230910569F40E94C100D093A902BA
:100EC000C093A80282E090E090930101809300011A
:100ED00086CC8330910559F40E94C100D093A902B9
:100EE000C093A802D0930101C093000178CC843054
:100EF000910559F40E94C100D093A902C093A802A1
:100F000010930101009300016ACC8530910569F4CA
:100F10000E94C10084E090E09093A9028093A8020F
:100F2000D0930101C09300015ACC8630910579F429
:100F30000E94C10084E090E09093A9028093A802EF
:100F400082E090E0909301018093000148CC8730CB
:100F5000910559F40E94C1001093A9020093A802C0
:100F6000D0930101C09300013ACC8830910569F417
:100F70000E94C1001093A9020093A80282E090E0B1
:100F800090930101809300012ACC8930910559F496
:100F90000E94C1001093A9020093A80210930101BE
:100FA000009300011CCC0A9709F019CC0E94C100E3
:100FB000D092A902C092A802D0930101C09300016F
:100FC0000ECCEE0FFF1F0590F491E02D0994BB2786
:100FD0004A3031F4992322F4BDE2909581959F4FD8
:100FE0000C94F307BB27FB015527AA27880F991FED
:100FF000AA1FA41710F0A41B83955051B9F7A05D48
:10100000AA3308F0A95DA193009779F7B111B193C4
:101010001192CB010C940C08DC01FC01672F71913B
:101020007723E1F7329704C07C916D9370836291CE
:0C103000AE17BF07C8F30895F894FFCF77
:10103C0001000A000A00200031323A333400323900
:10104C002D30342D32303231004D41494E204D453A
:10105C004E55003C3C20416C61726D203E3E003C84
:10106C003C4461746520262054696D653E3E003C0D
:10107C003C2053657474696E6773203E3E00414C8E
:10108C0041524D204D454E55003C536574204E65E4
:10109C007720416C61726D3E003C4D616E616765FD
:1010AC0020416C61726D733E003C416C61726D202D
:1010BC00546F6E65733E003C3C566F6C756D653EAF
:1010CC003E003C3C436F6E74726173743E3E003C58
:1010DC003C52657365743E3E002D2D2D566F6C751C
:1010EC006D652D2D2D002D2D436F6E7472617374F3
:1010FC002D2D00414C41524D204C495354003C2065
:10110C00416C61726D31203E003C20416C61726D0E
:10111C0032203E003C20416C61726D33203E003C1D
:10112C0020416C61726D34203E003C20416C617238
:10113C006D35203E003C20416C61726D36203E00C6
:10114C003C20416C61726D37203E00414C41524D48
:10115C0020544F4E4553003C416C61726D746F6E60
:10116C0065313E003C416C61726D746F6E65323E50
:10117C00003C416C61726D746F6E65333E003C4196
:10118C006C61726D746F6E65343E003C416C6172C3
:10119C006D746F6E65353E00414C41524D20534588
:1011AC005454494E4753003C4564697420416C616A
:1011BC00726D3E003C44656C65746520416C6172D7
:0411CC006D3E000074
:00000001FF
