:100000000C9442000C946A000C946A000C946A00F0
:100010000C946A000C946A000C946A000C946A00B8
:100020000C946A000C946A000C946A000C946A00A8
:100030000C946A000C946A000C946A000C946A0098
:100040000C946A000C946A000C946A000C946A0088
:100050000C946A000C946A000C946A000C946A0078
:100060000C946A000C946A006F087208750878088E
:100070007B087E0881089A08840887088A088D080A
:100080009408400D11241FBECFEFD8E0DEBFCDBFD6
:1000900012E0A0E0B1E0ECE2F1E202C005900D92C6
:1000A000A83EB107D9F723E0A8EEB2E001C01D9247
:1000B000A134B207E1F710E0C2E4D0E004C0219718
:1000C000FE010E945B0DC134D107C9F70E949B0855
:1000D0000C9494100C9400000197B9F56F3F7F4F7A
:1000E000A1F5A0911001B0911101B0931203A0935A
:1000F00011036091120170911301709310036093CA
:100100000F0340910E0150910F0150930E03409345
:100110000D0320910C0130910D0130930C032093BD
:100120000B0380910A0190910B0190930A03809335
:100130000903EFEFF2E0B183A083738362835583F9
:10014000448337832683918780870895982F907FF3
:1001500095B995B19E7F95B995B1926095B9EFEE3D
:10016000F0E03197F1F700C0000095B19D7F95B99F
:10017000FAE1FA95F1F700C020E1829FC001112455
:1001800085B985B18E7F85B985B1826085B98FEEDD
:1001900090E00197F1F700C0000085B18D7F85B92F
:1001A000EFECF7E03197F1F700C0000008958FE31E
:1001B0009CE90197F1F700C0000082E00E94A600D0
:1001C00088E20E94A6008CE00E94A60086E00E94C1
:1001D000A60081E00E94A60080E80E94A600089583
:1001E000982F907F95B995B1916095B995B192602E
:1001F00095B9EFEEF0E03197F1F700C0000095B14E
:100200009D7F95B9FAE1FA95F1F700C020E1829F50
:10021000C001112485B985B1816085B985B182603D
:1002200085B98FEE90E00197F1F700C0000085B12D
:100230008D7F85B9EFECF7E03197F1F700C0000052
:10024000089581E00E94A60080E80E94A60008951B
:10025000CF93DF93EC018881882321F021960E94BF
:10026000F000F9CFDF91CF910895611107C080317F
:1002700028F48F7080680E94A6001AC0613039F49B
:10028000803128F48F70806C0E94A60011C062300B
:1002900039F4803128F48F7080690E94A60008C06C
:1002A000633031F4803120F48F70806D0E94A6009D
:1002B0008CE00E94A6000895CF93DF936FEF680F44
:1002C00080E00E943501C0E0D0E0C031D10534F4B7
:1002D0008DE692E00E9428012196F7CFDF91CF9121
:1002E000089529B130E02095309502C035952795C5
:1002F0008A95E2F7C9018170992720FF02C081E049
:1003000090E0089560E086E00E94350184E191E08C
:100310000E94280161E084E00E9435018AE191E0B9
:100320000E942801089560E084E00E94350185E282
:1003300091E00E942801809100019091010181309B
:10034000910549F461E083E00E9435018FE291E07C
:100350000E94280108958230910549F461E081E00E
:100360000E9435018BE391E00E94280108950397D4
:1003700041F461E081E00E9435018BE491E00E944C
:100380002801089560E084E00E9435018AE591E04B
:100390000E94280180910001909101018130910516
:1003A00049F461E081E00E94350185E691E00E9418
:1003B00028010895029741F461E081E00E9435012F
:1003C00085E791E00E942801089560E084E00E94A2
:1003D000350182E192E00E94280180910001909114
:1003E00001018130910549F461E083E00E9435010B
:1003F00083E891E00E94280108958230910549F434
:1004000061E082E00E9435018EE891E00E942801BF
:100410000895039741F461E084E00E9435018BE97F
:1004200091E00E9428010895CF93DF93CDB7DEB706
:100430002A970FB6F894DEBF0FBECDBF60E085E00F
:100440000E94350185EA91E00E94280161E087E081
:100450000E9435014AE0BE016F5F7F4F809102012B
:10046000909103010E94750DCE0101960E94280112
:100470002A960FB6F894DEBF0FBECDBFDF91CF91A5
:100480000895CF93DF93CDB7DEB72A970FB6F894D0
:10049000DEBF0FBECDBF60E084E00E94350182EB7D
:1004A00091E00E94280161E087E00E9435014AE066
:1004B000BE016F5F7F4F80910401909105010E9402
:1004C000750DCE0101960E9428012A960FB6F89468
:1004D000DEBF0FBECDBFDF91CF91089560E083E016
:1004E0000E9435018FEB91E00E942801809100016C
:1004F000909101018130910549F461E082E00E9410
:1005000035018BEC91E00E9428010895823091051D
:1005100049F461E082E00E94350188ED91E00E949B
:10052000280108958330910549F461E082E00E943A
:10053000350185EE91E00E942801089584309105EF
:1005400049F461E082E00E94350182EF91E00E946F
:1005500028010895059741F461E082E00E94350189
:100560008FEF91E00E942801089560E081E00E94F1
:1005700035018CE092E00E94280180910001909169
:1005800001018130910549F461E082E00E9435016A
:100590008BE192E00E9428010895029741F461E006
:1005A00081E00E94350188E292E00E9428010895CE
:1005B0008BB181608BB908958AE090E0909303013C
:1005C0008093020182E390E09093050180930401FF
:1005D00081E08093FE020E94D80208958BB18E7F45
:1005E0008BB9089529B130E002C0359527958A95D9
:1005F000E2F720FD02C081E0089580E008950F93A6
:100600001F93CF93DF93CDB7DEB72A970FB6F89439
:10061000DEBF0FBECDBF60E080E00E94350187E302
:1006200092E00E942801809113018F938091120122
:100630008F9388E492E09F938F938E010F5F1F4FFB
:100640001F930F930E949A0D61E087E00E9435018D
:10065000C8010E9428018DE692E00E94280185E0F1
:1006600090E00E94F2020F900F900F900F900F9069
:100670000F90882371F080911201909113010196DF
:1006800068E170E00E94470D90931301809312017E
:100690002DC087E090E00E94F202882391F08091C3
:1006A000120190911301019790931301809312010D
:1006B0009923E4F487E190E0909313018093120171
:1006C00015C086E090E00E94F202882349F08091F4
:1006D0001201909113019093100380930F0310C0A7
:1006E00084E090E00E94F20281110AC02FEF81EEB7
:1006F00094E0215080409040E1F700C000008BCF93
:100700002FEF81EE94E0215080409040E1F700C04F
:10071000000060E080E00E9435018BE492E00E94DE
:100720002801809111018F93809110018F9388E4AB
:1007300092E09F938F938E010F5F1F4F1F930F9334
:100740000E949A0D61E087E00E943501C8010E9475
:1007500028018DE692E00E94280185E090E00E9449
:10076000F2020F900F900F900F900F900F90882330
:1007700071F0809110019091110101966CE370E08D
:100780000E94470D90931101809310012DC087E0C6
:1007900090E00E94F202882391F0809110019091E4
:1007A0001101019790931101809310019923E4F4B2
:1007B0008BE390E0909311018093100115C086E0C7
:1007C00090E00E94F202882349F0809110019091FC
:1007D0001101909312038093110310C084E090E004
:1007E0000E94F20281110AC02FEF81EE94E02150A5
:1007F00080409040E1F700C000008BCF2FEF81EEEA
:1008000094E0215080409040E1F700C0000060E09B
:1008100080E00E9435018CE592E00E9428018091E1
:100820000F018F9380910E018F9388E492E09F9344
:100830008F938E010F5F1F4F1F930F930E949A0D8E
:1008400061E087E00E943501C8010E9428018DE621
:1008500092E00E94280185E090E00E94F2020F9051
:100860000F900F900F900F900F90882391F0809130
:100870000E0190910F0101968F719078992324F4C5
:100880000197806E9F6F019690930F0180930E01E8
:100890002EC087E090E00E94F202882399F08091B8
:1008A0000E0190910F01019790930F0180930E011B
:1008B00018161906E4F08FE190E090930F018093F1
:1008C0000E0115C086E090E00E94F202882349F0F4
:1008D00080910E0190910F0190930E0380930D0370
:1008E00010C084E090E00E94F20281110AC02FEF54
:1008F00081EE94E0215080409040E1F700C000007C
:1009000086CF2FEF81EE94E0215080409040E1F7B8
:1009100000C0000060E080E00E9435018FE692E0B8
:100920000E94280180910D018F9380910C018F937B
:1009300088E492E09F938F938E010F5F1F4F1F9368
:100940000F930E949A0D61E087E00E943501C80173
:100950000E9428018DE692E00E94280185E090E047
:100960000E94F2020F900F900F900F900F900F9037
:10097000882371F080910C0190910D0101966DE03A
:1009800070E00E94470D90930D0180930C012EC0E2
:1009900087E090E00E94F202882399F080910C0198
:1009A00090910D01019790930D0180930C01181601
:1009B0001906E4F08CE090E090930D0180930C0117
:1009C00015C086E090E00E94F202882349F08091F1
:1009D0000C0190910D0190930C0380930B0310C0B8
:1009E00084E090E00E94F20281110AC02FEF81EEB4
:1009F00094E0215080409040E1F700C000008ACF91
:100A00002FEF81EE94E0215080409040E1F700C04C
:100A1000000060E080E00E94350182E892E00E94E0
:100A2000280180910B018F9380910A018F9388E4B4
:100A300092E09F938F938E010F5F1F4F1F930F9331
:100A40000E949A0D61E085E00E943501C8010E9474
:100A500028018DE692E00E94280185E090E00E9446
:100A6000F2020F900F900F900F900F900F9088232D
:100A700051F080910A0190910B01019690930B0126
:100A800080930A0125C087E090E00E94F20288234B
:100A900051F080910A0190910B01019790930B0105
:100AA00080930A0115C086E090E00E94F20288233C
:100AB00049F080910A0190910B0190930A03809371
:100AC000090310C084E090E00E94F20281110AC084
:100AD0002FEF81EE94E0215080409040E1F700C07C
:100AE000000097CF0E94210184E992E00E94280132
:100AF0002FEF89E698E1215080409040E1F700C057
:100B000000000E94210181E090E09093FD0280931B
:100B1000FC022A960FB6F894DEBF0FBECDBFDF9160
:100B2000CF911F910F910895EF92FF920F931F9312
:100B3000CF93DF93CDB7DEB72A970FB6F894DEBF19
:100B40000FBECDBF7C0160E080E00E94350187E3ED
:100B500092E00E942801809109018F938091080101
:100B60008F9388E492E09F938F938E010F5F1F4FC6
:100B70001F930F930E949A0D61E087E00E94350158
:100B8000C8010E9428018DE692E00E94280185E0BC
:100B900090E00E94F2020F900F900F900F900F9034
:100BA0000F90882371F080910801909109010196BE
:100BB00068E170E00E94470D90930901809308015D
:100BC00031C087E090E00E94F202882391F080918A
:100BD0000801909109010197909309018093080100
:100BE000992304F587E190E090930901809308012F
:100BF00019C086E090E00E94F202882369F0F701B4
:100C00003197EE0FFF1FED5CFC4F80910801909132
:100C100009019183808310C084E090E00E94F20279
:100C200081110AC02FEF81EE94E021508040904066
:100C3000E1F700C0000087CF2FEF81EE94E0215054
:100C400080409040E1F700C0000060E080E00E943A
:100C500035018BE492E00E942801809107018F9377
:100C6000809106018F9388E492E09F938F938E0189
:100C70000F5F1F4F1F930F930E949A0D61E087E053
:100C80000E943501C8010E9428018DE692E00E9471
:100C9000280185E090E00E94F2020F900F900F90E3
:100CA0000F900F900F90882371F080910601909122
:100CB000070101966CE370E00E94470D90930701D5
:100CC0008093060131C087E090E00E94F202882301
:100CD00091F080910601909107010197909307018F
:100CE00080930601992304F58BE390E0909307012C
:100CF0008093060119C086E090E00E94F2028823EA
:100D000069F0F7013197EE0FFF1FEB5DFC4F80910B
:100D10000601909107019183808310C084E090E0E8
:100D20000E94F20281110AC02FEF81EE94E021505F
:100D300080409040E1F700C0000087CF21E0E21A38
:100D4000F108F701EE0FFF1FE95EFC4F80819181F2
:100D5000892B59F5C701880F991FFC01E95EFC4FEB
:100D600081E090E091838083809115039091160338
:100D7000019690931603809315030E94210186EA41
:100D800092E00E9428018FEF99E628E1815090407F
:100D90002040E1F700C0000088E090E09093FD0261
:100DA0008093FC020E94210117C00E94210186EA63
:100DB00092E00E9428018FEF99E628E1815090404F
:100DC0002040E1F700C0000088E090E09093FD0231
:100DD0008093FC020E9421012A960FB6F894DEBF90
:100DE0000FBECDBFDF91CF911F910F91FF90EF907C
:100DF0000895EF92FF920F931F93CF93DF93CDB798
:100E0000DEB764970FB6F894DEBF0FBECDBF019773
:100E10008C01000F111FF801ED5CFC4F8081918166
:100E20009F938F930F2EF8E4EF2EF2E0FF2EF02D1C
:100E3000FF92EF92CE0101969F938F930E949A0D9D
:100E4000F801EB5DFC4F808191819F938F93FF921E
:100E5000EF92CE010B969F938F930E949A0DF8010B
:100E6000E95EFC4F808191810FB6F894DEBF0FBE22
:100E7000CDBF0197C9F461E085E00E943501CE0144
:100E800001960E94280161E087E00E94350189EB0C
:100E900092E00E94280161E08AE00E943501CE01C3
:100EA0000B960E94280108C061E081E00E94350194
:100EB0008BEB92E00E94280164960FB6F894DEBF97
:100EC0000FBECDBFDF91CF911F910F91FF90EF909B
:100ED000089560E083E00E9435018BEC92E00E946F
:100EE000280180910001909101018130910549F420
:100EF00081E090E090931403809313030E94F9061D
:100F000008958230910549F482E090E090931403B3
:100F1000809313030E94F90608958330910549F4E4
:100F200083E090E090931403809313030E94F906EA
:100F300008958430910549F484E090E0909314037F
:100F4000809313030E94F90608958530910549F4B2
:100F500085E090E090931403809313030E94F906B8
:100F600008958630910549F486E090E0909314034B
:100F7000809313030E94F9060895079741F487E0D0
:100F800090E090931403809313030E94F906089550
:100F90000197FC01EE0FFF1FE95EFC4F11821082EA
:100FA0000E94210186ED92E00E9428012FEF89E640
:100FB00098E1215080409040E1F700C000000E947D
:100FC000210188E090E09093FD028093FC02089557
:100FD0008091F6029091F7022091EE023091EF029B
:100FE0008217930759F0892B19F481E08093FA0254
:100FF0008FE39CE90197F1F700C000008091F602B1
:101000009091F7029093EF028093EE020895809101
:10101000F4029091F5022091EA023091EB028217DE
:10102000930759F0892B19F481E08093FB028FE339
:101030009CE90197F1F700C000008091F4029091C3
:10104000F5029093EB028093EA0208958091F202F8
:101050009091F3022091EC023091ED0282179307F8
:1010600059F0892B19F481E08093F9028FE39CE910
:101070000197F1F700C000008091F2029091F30215
:101080009093ED028093EC0208958091F00290918C
:10109000F1022091E8023091E9028217930759F09A
:1010A000892B19F481E08093F8028FE39CE9019782
:1010B000F1F700C000008091F0029091F10290934E
:1010C000E9028093E8020895E091FC02F091FD02AC
:1010D000ED30F10578F5EC5CFF4F0C945B0D0E9450
:1010E000820108950E94930108950E94FF020895CD
:1010F0000E94C20108950E94E50108950E94140211
:1011000008950E94410208950E94690708950E946F
:101110006E0208950E94B502089580911303909184
:1011200014030E9494050895809113039091140371
:101130000E94C807089581E08AB980EF8BB98FEFCC
:1011400084B90E94D7000E94640887E090E00E9462
:1011500071019093F7028093F60286E090E00E947E
:1011600071019093F3028093F20285E090E00E9477
:1011700071019093F5028093F40284E090E00E9464
:1011800071019093F1028093F0020E94E8070E949F
:1011900007080E9426080E9445088091FB028823C8
:1011A00049F02091FC023091FD022130310519F007
:1011B00080E001C080E08823C9F01092FB0282E049
:1011C00090E00E945C0180910001909101010197E3
:1011D0009093010180930001892B09F014C183E0F1
:1011E00090E090930101809300010DC19091FB026A
:1011F000992341F02091FC023091FD02223031050B
:1012000009F4892F882319F01092FB02FCC09091F9
:10121000FB02992341F02091FC023091FD02233022
:10122000310509F4892F8823C9F01092FB0282E06E
:1012300090E00E945C018091000190910101019772
:101240009093010180930001892B09F0DCC082E0BA
:1012500090E09093010180930001D5C09091FB0232
:10126000992341F02091FC023091FD022430310598
:1012700009F4892F8823C9F01092FB0282E090E0E4
:101280000E945C018091000190910101019790936F
:10129000010180930001892B09F0B5C083E090E043
:1012A0009093010180930001AEC09091FA029923BE
:1012B00041F02091FC023091FD022530310509F406
:1012C000892F882381F01092FA0282E090E00E9438
:1012D0005C018091020190910301019690930301BA
:1012E0008093020190C09091FB02992341F02091DC
:1012F000FC023091FD022630310509F4892F882344
:1013000081F01092FB0282E090E00E945C018091EB
:1013100004019091050101979093050180930401C8
:1013200072C09091FB02992341F02091FC02309110
:10133000FD022830310509F4892F8823C9F0109265
:10134000FB0282E090E00E945C018091000190919C
:10135000010101979093010180930001892B09F00D
:1013600052C087E090E090930101809300014BC050
:101370009091FB02992341F02091FC023091FD02F3
:101380002930310509F4892F8823C1F01092FB021E
:1013900082E090E00E945C01809100019091010147
:1013A00001979093010180930001892B61F585E0FD
:1013B00090E0909301018093000125C09091FB0281
:1013C000992341F02091FC023091FD022A30310531
:1013D00009F4892F8823B9F01092FB0282E090E093
:1013E0000E945C018091000190910101019790930E
:1013F000010180930001892B31F482E090E0909309
:101400000101809300018091FA02882349F0209124
:10141000FC023091FD022130310519F080E001C05D
:1014200080E08823C9F01092FA0282E090E00E94E6
:101430005C0180910001909101010196909301015E
:1014400080930001049709F014C181E090E090932B
:101450000101809300010DC19091FA02992341F09E
:101460002091FC023091FD022230310509F4892FD0
:10147000882319F01092FA02FCC09091FA02992385
:1014800041F02091FC023091FD022330310509F436
:10149000892F8823C9F01092FA0282E090E00E941E
:1014A0005C018091000190910101019690930101EE
:1014B00080930001039709F0DCC081E090E09093F5
:1014C000010180930001D5C09091FA02992341F067
:1014D0002091FC023091FD022430310509F4892F5E
:1014E0008823C9F01092FA0282E090E00E945C0129
:1014F00080910001909101010196909301018093E8
:101500000001049709F0B5C081E090E090930101DB
:1015100080930001AEC09091FB02992341F020918D
:10152000FC023091FD022530310509F4892F882312
:1015300081F01092FB0282E090E00E945C018091B9
:10154000020190910301019790930301809302019E
:1015500090C09091FA02992341F02091FC023091C1
:10156000FD022630310509F4892F882381F010927D
:10157000FA0282E090E00E945C0180910401909167
:1015800005010196909305018093040172C090912A
:10159000FA02992341F02091FC023091FD0228309B
:1015A000310509F4892F8823C9F01092FA0282E0EC
:1015B00090E00E945C0180910001909101010196F0
:1015C0009093010180930001089709F052C081E0D7
:1015D00090E090930101809300014BC09091FA023A
:1015E000992341F02091FC023091FD022930310510
:1015F00009F4892F8823C1F01092FA0282E090E06A
:101600000E945C01809100019091010101969093EC
:10161000010180930001069761F581E090E09093CD
:1016200001018093000125C09091FA02992341F0B5
:101630002091FC023091FD022A30310509F4892FF6
:101640008823B9F01092FA0282E090E00E945C01D7
:101650008091000190910101019690930101809386
:101660000001039731F481E090E0909301018093B1
:1016700000018091F902882309F43CC11092F9021B
:101680008091FC029091FD02009769F40E94210173
:1016900081E090E09093FD028093FC029093010121
:1016A0008093000127C181309105B1F420910001A0
:1016B000309101012130310579F40E94210183E04C
:1016C00090E09093FD028093FC0281E090E0909383
:1016D0000101809300010EC18130910581F42091B8
:1016E0000001309101012230310549F40E942101AD
:1016F00082E090E09093FD028093FC02FBC0813079
:101700009105B1F4209100013091010123303105A0
:1017100079F40E94210184E090E09093FD0280938F
:10172000FC0281E090E09093010180930001E2C00F
:101730008230910549F40E94210181E090E090936C
:10174000FD028093FC02D6C083309105B1F4209154
:101750000001309101012130310579F40E9421010D
:1017600088E090E09093FD028093FC0281E090E09D
:101770009093010180930001BDC083309105B1F4C5
:1017800020910001309101012230310579F40E944D
:10179000210189E090E09093FD028093FC0281E0BA
:1017A00090E09093010180930001A4C084309105E2
:1017B00081F420910001309101012130310549F47B
:1017C0000E94210185E090E09093FD028093FC024D
:1017D00091C08430910581F4209100013091010184
:1017E0002230310549F40E94210186E090E0909377
:1017F000FD028093FC027EC08430910551F420915B
:101800000001309101012330310519F40E94DC02FE
:1018100071C08530910579F40E94210184E090E047
:101820009093FD028093FC0281E090E0909301018F
:10183000809300015FC08630910579F40E942101F8
:1018400084E090E09093FD028093FC0282E090E0BF
:1018500090930101809300014DC08730910579F488
:101860000E94210183E090E09093FD028093FC02AE
:1018700081E090E090930101809300013BC08830AB
:10188000910579F40E9421018AE090E09093FD0295
:101890008093FC0281E090E090930101809300012D
:1018A00029C08A30910581F4209100013091010115
:1018B0002130310549F40E9421018BE090E09093A2
:1018C000FD028093FC0216C00A97A1F480910001EA
:1018D00090910101029771F40E9421018CE090E047
:1018E0009093FD028093FC0281E090E090930101CF
:1018F000809300018091F802882309F424CC10928F
:10190000F8028091FC029091FD02009779F4809199
:10191000FE02882329F01092FE020E94EE0213CCF0
:1019200081E08093FE020E94D8020DCC81309105A7
:1019300039F40E9421011092FD021092FC0203CCA6
:101940008230910579F40E94210181E090E090932A
:10195000FD028093FC0282E090E09093010180936D
:101960000001F1CB8330910569F40E94210181E0EF
:1019700090E09093FD028093FC029093010180938C
:101980000001E1CB8430910579F40E94210181E0CE
:1019900090E09093FD028093FC0283E090E09093AE
:1019A000010180930001CFCB8530910579F40E942D
:1019B000210184E090E09093FD028093FC0281E09D
:1019C00090E09093010180930001BDCB863091059A
:1019D00079F40E94210184E090E09093FD028093CD
:1019E000FC0282E090E09093010180930001ABCB78
:1019F0008730910579F40E94210183E090E0909373
:101A0000FD028093FC0281E090E0909301018093BD
:101A1000000199CB8830910579F40E94210183E07F
:101A200090E09093FD028093FC0282E090E090931E
:101A300001018093000187CB8930910579F40E94E0
:101A4000210183E090E09093FD028093FC0282E00C
:101A500090E0909301018093000175CB0A9709F003
:101A600072CB0E94210188E090E09093FD02809368
:101A7000FC0281E090E0909301018093000163CB30
:101A80006FEF7FEF81E090E00E946C00089597FB7C
:101A9000072E16F4009407D077FD09D00E94610D3F
:101AA00007FC05D03EF4909581959F4F0895709561
:101AB00061957F4F0895EE0FFF1F0590F491E02D83
:101AC0000994AA1BBB1B51E107C0AA1FBB1FA61785
:101AD000B70710F0A61BB70B881F991F5A95A9F7D7
:101AE00080959095BC01CD010895BB274A3031F413
:101AF000992322F4BDE2909581959F4F0C94810D1E
:101B0000BB27FB015527AA27880F991FAA1FA417D7
:101B100010F0A41B83955051B9F7A05DAA3308F0CB
:101B2000A95DA193009779F7B111B1931192CB01FF
:101B30000C94B30FAEE0B0E0E0EAFDE00C946B1063
:101B40000D891E8986E08C831A8309838FEF9FE7B6
:101B50009E838D83AE01475E5F4F6F89788DCE0186
:101B600001960E94BC0DEF81F885E00FF11F1082F5
:101B70002E96E4E00C948710ABE0B0E0E2ECFDE0E0
:101B80000C945D106C017B018A01FC0117821682A6
:101B9000838181FFCCC1CE0101963C01F601938186
:101BA000F70193FD859193FF81917F01882309F4CB
:101BB000BAC1853239F493FD859193FF81917F01FC
:101BC000853229F4B60190E00E94C30FE7CF912C33
:101BD000212C312CFFE1F315D8F08B3279F038F459
:101BE000803279F08332A1F4232D20611DC08D3223
:101BF00061F0803369F4232D216016C0832D82604B
:101C0000382EE32DE4603E2E2AC0F32DF8601DC06F
:101C100037FC2DC020ED280F2A3040F08E32B9F469
:101C200036FC81C1232D2064322E19C036FE06C039
:101C30008AE0989E200D1124922E11C0EAE02E9E7B
:101C4000200D1124222EF32DF0623F2E08C08C3679
:101C500021F4832D8068382E02C0883641F4F701C4
:101C600093FD859193FF81917F018111B3CF982FCF
:101C70009F7D9554933028F40C5F1F4F9FE3998309
:101C80000DC0833631F0833771F0833509F059C0C8
:101C900021C0F801808189830E5F1F4F88248394BF
:101CA000912C530113C02801F2E04F0E511CF80192
:101CB000A080B18036FE03C0692D70E002C06FEFD6
:101CC0007FEFC5010E94A80F4C018201F32DFF7721
:101CD0003F2E16C0280122E0420E511CF801A080C0
:101CE000B18036FE03C0692D70E002C06FEF7FEF58
:101CF000C5010E949D0F4C01F32DF0683F2E82011B
:101D000033FC1BC0822D90E088169906B0F4B60112
:101D100080E290E00E94C30F2A94F4CFF50137FCD3
:101D2000859137FE81915F01B60190E00E94C30F5B
:101D300021102A9421E0821A91088114910471F7EC
:101D4000E8C0843611F0893641F5F80137FE07C046
:101D500060817181828193810C5F1F4F08C0608117
:101D60007181072E000C880B990B0E5F1F4FF32D0E
:101D7000FF763F2E97FF09C09095809570956195ED
:101D80007F4F8F4F9F4FF0683F2E2AE030E0A30136
:101D90000E94FF0F882E861845C0853731F4232D09
:101DA0002F7EB22E2AE030E025C0932D997FB92EE8
:101DB0008F36C1F018F4883579F0B5C0803719F046
:101DC000883721F0B0C0E92FE061BE2EB4FE0DC00F
:101DD000FB2DF460BF2E09C034FE0AC0292F2660F7
:101DE000B22E06C028E030E005C020E130E002C09D
:101DF00020E132E0F801B7FE07C060817181828185
:101E000093810C5F1F4F06C06081718180E090E07C
:101E10000E5F1F4FA3010E94FF0F882E8618FB2D17
:101E2000FF773F2E36FE0DC0232D2E7FA22E891464
:101E300058F434FE0BC032FC09C0832D8E7EA82ED0
:101E400005C0B82CA32C03C0B82C01C0B92CA4FE2B
:101E50000FC0FE01E80DF11D8081803321F49A2D21
:101E6000997EA92E09C0A2FE06C0B394B39404C003
:101E70008A2D867809F0B394A3FC11C0A0FE06C099
:101E8000B21488F4280C922C9B180EC0B21460F483
:101E9000B60180E290E00E94C30FB394F7CFB21472
:101EA00018F42B1802C0982C212CA4FE10C0B601E7
:101EB00080E390E00E94C30FA2FE17C0A1FC03C004
:101EC00088E790E002C088E590E0B6010CC08A2D5A
:101ED000867859F0A1FE02C08BE201C080E2A7FC27
:101EE0008DE2B60190E00E94C30F891438F4B60168
:101EF00080E390E00E94C30F9A94F7CF8A94F30195
:101F0000E80DF11D8081B60190E00E94C30F8110A1
:101F1000F5CF222009F442CEB60180E290E00E9483
:101F2000C30F2A94F6CFF6018681978102C08FEF06
:101F30009FEF2B96E2E10C947910FC010590615023
:101F400070400110D8F7809590958E0F9F1F0895CF
:101F5000FC016150704001900110D8F78095909578
:101F60008E0F9F1F0895DC01FC01672F719177236D
:101F7000E1F7329704C07C916D9370836291AE1744
:101F8000BF07C8F308950F931F93CF93DF93FB010F
:101F9000238121FD03C08FEF9FEF2CC022FF16C0CD
:101FA00046815781248135814217530744F4A0812B
:101FB000B1819D012F5F3F4F318320838C93268118
:101FC00037812F5F3F4F3783268314C08B01EC018D
:101FD000FB010084F185E02D0995892BE1F6D801FC
:101FE00016968D919C911797019617969C938E93B8
:101FF0001697CE01DF91CF911F910F910895FA01AD
:10200000AA27283051F1203181F1E8946F936E7F37
:102010006E5F7F4F8F4F9F4FAF4FB1E03ED0B4E028
:102020003CD0670F781F891F9A1FA11D680F791F69
:102030008A1F911DA11D6A0F711D811D911DA11D7A
:1020400020D009F468943F912AE0269F112430198A
:10205000305D3193DEF6CF010895462F4770405D25
:102060004193B3E00FD0C9F7F6CF462F4F70405DD4
:102070004A3318F0495D31FD4052419302D0A9F72F
:10208000EACFB4E0A6959795879577956795BA9529
:10209000C9F700976105710508959B01AC010A2EEF
:1020A00006945795479537952795BA95C9F7620FC6
:1020B000731F841F951FA01D08952F923F924F926A
:1020C0005F926F927F928F929F92AF92BF92CF92C8
:1020D000DF92EF92FF920F931F93CF93DF93CDB7D1
:1020E000DEB7CA1BDB0B0FB6F894DEBF0FBECDBF49
:1020F00009942A88398848885F846E847D848C841A
:102100009B84AA84B984C884DF80EE80FD800C8122
:102110001B81AA81B981CE0FD11D0FB6F894DEBF05
:0C2120000FBECDBFED010895F894FFCF75
:10212C0001000A000A0014000800E50706000F0071
:10213C001400080031323A33340032392D30342D4A
:10214C0032303231004D41494E204D454E55003C08
:10215C003C20416C61726D203E3E003C3C446174FD
:10216C006520262054696D653E3E003C3C2053653D
:10217C007474696E6773203E3E00414C41524D2091
:10218C004D454E55003C4D616E61676520416C615B
:10219C00726D733E003C416C61726D20546F6E65C4
:1021AC00733E003C3C566F6C756D653E3E003C3C8E
:1021BC00436F6E74726173743E3E003C3C526573A7
:1021CC0065743E3E002D2D2D566F6C756D652D2D55
:1021DC002D002D2D436F6E74726173742D2D004183
:1021EC004C41524D20544F4E4553003C416C617252
:1021FC006D746F6E65313E003C416C61726D746F35
:10220C006E65323E003C416C61726D746F6E65336D
:10221C003E003C416C61726D746F6E65343E003CE7
:10222C00416C61726D746F6E65353E00414C41526C
:10223C004D2053455454494E4753003C45646974F2
:10224C0020416C61726D3E003C44656C6574652088
:10225C00416C61726D3E00202020456E74657220C9
:10226C0048723A20202020002564002020456E74FE
:10227C006572204D696E73203A2020002020204585
:10228C006E74657220446174653A20202020002011
:10229C0020456E746572204D6F6E74683A20202054
:1022AC0020002020456E74657220596561723A20B9
:1022BC0020202000202054696D65206973207365EF
:1022CC007421202020002020416C61726D206973E4
:1022DC002073657421202020003A003C3C456D7031
:1022EC00747920416C61726D3E3E00414C41524DFF
:1022FC00204C495354002020416C61726D20446580
:08230C006C657465642000009B
:00000001FF
