:100000000C9442000C946A000C946A000C946A00F0
:100010000C946A000C946A000C946A000C946A00B8
:100020000C946A000C946A000C946A000C946A00A8
:100030000C946A000C946A000C946A000C946A0098
:100040000C946A000C946A000C946A000C946A0088
:100050000C946A000C946A000C946A000C946A0078
:100060000C946A000C946A005D09600963096609D2
:1000700069096C096F0988097209750978097B0992
:1000800082098A0E11241FBECFEFD8E0DEBFCDBF9C
:1000900012E0A0E0B1E0ECE0F4E202C005900D92C5
:1000A000A43EB107D9F723E0A4EEB2E001C01D924F
:1000B000A735B207E1F710E0C2E4D0E004C0219711
:1000C000FE010E94A50EC134D107C9F70E9489091B
:1000D0000C9404120C9400000197B9F56F3F7F4F08
:1000E000A1F5A0914703B0914803B0930E03A093EC
:1000F0000D036091490370914A0370930C03609360
:100100000B03409145035091460350930A034093DB
:100110000903209143033091440330930803209353
:1001200007038091410390914203909306038093CB
:100130000503EBEFF2E0B183A08373836283558301
:10014000448337832683918780870895982F907FF3
:1001500095B995B19E7F95B995B1926095B9EFEE3D
:10016000F0E03197F1F700C0000095B19D7F95B99F
:10017000FAE1FA95F1F700C020E1829FC001112455
:1001800085B985B18E7F85B985B1826085B98FEEDD
:1001900090E00197F1F700C0000085B18D7F85B92F
:1001A000EFECF7E03197F1F700C0000008958FE31E
:1001B0009CE90197F1F700C0000082E00E94A600D0
:1001C00088E20E94A6008CE00E94A60086E00E94C1
:1001D000A60081E00E94A60080E80E94A600089583
:1001E000982F907F95B995B1916095B995B192602E
:1001F00095B9EFEEF0E03197F1F700C0000095B14E
:100200009D7F95B9FAE1FA95F1F700C020E1829F50
:10021000C001112485B985B1816085B985B182603D
:1002200085B98FEE90E00197F1F700C0000085B12D
:100230008D7F85B9EFECF7E03197F1F700C0000052
:10024000089581E00E94A60080E80E94A60008951B
:10025000CF93DF93EC018881882321F021960E94BF
:10026000F000F9CFDF91CF910895611107C080317F
:1002700028F48F7080680E94A6001AC0613039F49B
:10028000803128F48F70806C0E94A60011C062300B
:1002900039F4803128F48F7080690E94A60008C06C
:1002A000633031F4803120F48F70806D0E94A6009D
:1002B0008CE00E94A6000895CF93DF936FEF680F44
:1002C00080E00E943501C0E0D0E0C031D10534F4B7
:1002D0008DE592E00E9428012196F7CFDF91CF9122
:1002E000089529B130E02095309502C035952795C5
:1002F0008A95E2F7C9018170992720FF02C081E049
:1003000090E008951092B90080E28093B8000895BB
:1003100084EA8093BC008091BC008823E4F70895B0
:1003200084E98093BC0008958093BB0084E88093A7
:10033000BC008091BC008823E4F7089584EC80938E
:10034000BC008091BC008823E4F78091BB00089535
:1003500084E88093BC008091BC008823E4F78091FE
:10036000BB0008950E9482010E94880180ED0E94D6
:10037000940187E00E94940180E00E9494010E9411
:1003800090018FE99FE00197F1F700C00000089508
:10039000CF93DF93EC010E94880180ED0E949401CD
:1003A00080E00E9494010E9490010E94880181EDEA
:1003B0000E9494010E949E0188830E949E0189836D
:1003C0000E949E018A830E949E018B830E949E014F
:1003D0008C830E949E018D830E94A8018E830E94BF
:1003E0009001DF91CF910895EF92FF920F931F93A9
:1003F000CF93DF93CDB7DEB7A5970FB6F894DEBFE6
:100400000FBECDBF0E9482010E94B201CE014F9665
:100410000E94C8014F8D842F90E0909356038093E3
:10042000550338A1832F90E090935203809351039A
:1004300029A1822F90E090935403809353038DA1C0
:1004400090E09093500380934F038CA190E09093A1
:100450004E0380934D038BA190E090934C038093C7
:100460004B031F924F931F923F931F922F9306E0CF
:1004700011E01F930F93CE0101967C019F938F9300
:100480000E940A0F809150038F9380914F038F93A6
:1004900080914E038F9380914D038F9380914C03F5
:1004A0008F9380914B038F931F930F938E01055F62
:1004B0001F4F1F930F930E940A0F60E084E00E9479
:1004C0003501C7010E94280161E084E00E943501E6
:1004D000C8010E9428010FB6F894DEBF0FBECDBF41
:1004E000A5960FB6F894DEBF0FBECDBFDF91CF91BA
:1004F0001F910F91FF90EF90089560E084E00E94BB
:10050000350185E191E00E942801809100019091E0
:1005100001018130910549F461E083E00E943501D9
:100520008FE191E00E94280108958230910549F4FD
:1005300061E081E00E9435018BE291E00E94280198
:100540000895039741F461E081E00E9435018BE357
:1005500091E00E942801089560E084E00E94350146
:100560008AE491E00E9428018091000190910101AC
:100570008130910549F461E081E00E94350185E513
:1005800091E00E9428010895029741F461E081E022
:100590000E94350185E691E00E942801089560E0FF
:1005A00084E00E94350182E092E00E94280180915F
:1005B0000001909101018130910549F461E083E0EF
:1005C0000E94350183E791E00E942801089582305E
:1005D000910549F461E082E00E9435018EE791E0E7
:1005E0000E9428010895039741F461E084E00E948D
:1005F00035018BE891E00E9428010895CF93DF93A5
:10060000CDB7DEB72A970FB6F894DEBF0FBECDBFC9
:1006100060E085E00E94350185E991E00E942801B3
:1006200061E087E00E9435014AE0BE016F5F7F4FC5
:1006300080910201909103010E94DD0ECE0101968E
:100640000E9428012A960FB6F894DEBF0FBECDBFD8
:10065000DF91CF910895CF93DF93CDB7DEB72A977F
:100660000FB6F894DEBF0FBECDBF60E084E00E94FD
:10067000350182EA91E00E94280161E087E00E9452
:1006800035014AE0BE016F5F7F4F80910401909178
:1006900005010E94DD0ECE0101960E9428012A96D6
:1006A0000FB6F894DEBF0FBECDBFDF91CF91089596
:1006B00060E083E00E9435018FEA91E00E9428010A
:1006C00080910001909101018130910549F461E030
:1006D00082E00E9435018BEB91E00E942801089591
:1006E0008230910549F461E082E00E94350188EC96
:1006F00091E00E94280108958330910549F461E05A
:1007000082E00E94350185ED91E00E942801089564
:100710008430910549F461E082E00E94350182EE67
:1007200091E00E9428010895059741F461E082E07C
:100730000E9435018FEE91E00E942801089560E04B
:1007400081E00E9435018CEF91E00E9428018091A8
:100750000001909101018130910549F461E082E04E
:100760000E9435018BE092E00E94280108950297D3
:1007700041F461E081E00E94350188E192E00E944D
:10078000280108958BB181608BB908958AE090E0CB
:10079000909303018093020182E390E0909305011E
:1007A0008093040181E08093FA020E94C2030895BD
:1007B0008BB18E7F8BB9089529B130E002C0359599
:1007C00027958A95E2F720FD02C081E0089580E038
:1007D00008950F931F93CF93DF93CDB7DEB72A977A
:1007E0000FB6F894DEBF0FBECDBF60E080E00E9480
:1007F000350187E292E00E94280180910C038F93DB
:1008000080910B038F9388E392E09F938F938E01E7
:100810000F5F1F4F1F930F930E940A0F61E087E045
:100820000E943501C8010E9428018DE592E00E94D6
:10083000280185E090E00E94DC030F900F900F905C
:100840000F900F900F90882371F080910B0390917F
:100850000C03019668E170E00E94910E90930C03E6
:1008600080930B0331C087E090E00E94DC03882373
:10087000B1F080910B0390910C03019790930C03BE
:1008800080930B0380915303909154039923E4F4D4
:1008900087E190E090930C0380930B0315C086E0F2
:1008A00090E00E94DC03882349F080910B03909133
:1008B0000C03909354038093530310C084E090E0A2
:1008C0000E94DC0381110AC02FEF81EE94E02150D9
:1008D00080409040E1F700C0000087CF2FEF81EE0D
:1008E00094E0215080409040E1F700C0000060E0BB
:1008F00080E00E9435018BE392E00E942801809104
:1009000052038F93809151038F9388E392E09F93DA
:100910008F938E010F5F1F4F1F930F930E940A0F3B
:1009200061E087E00E943501C8010E9428018DE541
:1009300092E00E94280185E090E00E94DC030F9085
:100940000F900F900F900F900F90882371F080916F
:100950000D0390910E0301966CE370E00E94910EDE
:1009600090930E0380930D032DC087E090E00E94CA
:10097000DC03882391F080910D0390910E03019781
:1009800090930E0380930D039923E4F48BE390E09E
:1009900090930E0380930D0315C086E090E00E94B3
:1009A000DC03882349F080910D0390910E0390930E
:1009B00052038093510310C084E090E00E94DC0356
:1009C00081110AC02FEF81EE94E0215080409040C9
:1009D000E1F700C000008BCF2FEF81EE94E02150B3
:1009E00080409040E1F700C0000060E080E00E949D
:1009F00035018CE492E00E942801809146038F9398
:100A0000809145038F938FE592E09F938F938E01A2
:100A10000F5F1F4F1F930F930E940A0F61E087E043
:100A20000E943501C8010E9428018DE592E00E94D4
:100A3000280185E090E00E94DC030F900F900F905A
:100A40000F900F900F90882391F080914503909123
:100A5000460301968F719078992324F40197806E54
:100A60009F6F019690934603809345032EC087E0C5
:100A700090E00E94DC03882399F0809145039091D7
:100A80004603019790934603809345031816190671
:100A9000E4F08FE190E0909346038093450315C006
:100AA00086E090E00E94DC03882349F080914503B2
:100AB0009091460390930A038093090310C084E049
:100AC00090E00E94DC0381110AC02FEF81EE94E0D8
:100AD000215080409040E1F700C0000086CF2FEF0A
:100AE00081EE94E0215080409040E1F700C000008A
:100AF00060E080E00E94350182E692E00E942801D9
:100B0000809144038F93809143038F938FE592E00C
:100B10009F938F938E010F5F1F4F1F930F930E9420
:100B20000A0F61E087E00E943501C8010E94280198
:100B30008DE592E00E94280185E090E00E94DC03B0
:100B40000F900F900F900F900F900F90882371F0DF
:100B5000809143039091440301966DE070E00E9400
:100B6000910E90934403809343032EC087E090E05E
:100B70000E94DC03882399F0809143039091440301
:100B80000197909344038093430318161906E4F0E9
:100B90008CE090E0909344038093430315C086E07B
:100BA00090E00E94DC03882349F0809143039091F8
:100BB0004403909308038093070310C084E090E0FF
:100BC0000E94DC0381110AC02FEF81EE94E02150D6
:100BD00080409040E1F700C000008ACF2FEF81EE07
:100BE00094E0215080409040E1F700C0000060E0B8
:100BF00080E00E94350185E792E00E942801809103
:100C000042038F93809141038F938FE592E09F93EE
:100C10008F938E010F5F1F4F1F930F930E940A0F38
:100C200061E085E00E943501C8010E9428018DE540
:100C300092E00E94280185E090E00E94DC030F9082
:100C40000F900F900F900F900F90882351F080918C
:100C50004103909142030196909342038093410394
:100C600025C087E090E00E94DC03882351F080914A
:100C70004103909142030197909342038093410373
:100C800015C086E090E00E94DC03882349F0809143
:100C9000410390914203909306038093050310C093
:100CA00084E090E00E94DC0381110AC02FEF81EE06
:100CB00094E0215080409040E1F700C0000097CFC1
:100CC0000E94210187E892E00E9428012FEF89E627
:100CD00098E1215080409040E1F700C000000E9460
:100CE000210181E090E09093F9028093F8022A9626
:100CF0000FB6F894DEBF0FBECDBFDF91CF911F912D
:100D00000F910895EF92FF920F931F93CF93DF936C
:100D1000CDB7DEB72A970FB6F894DEBF0FBECDBFB2
:100D20007C0160E080E00E94350187E292E00E9451
:100D30002801809140038F9380913F038F938FE52B
:100D400092E09F938F938E010F5F1F4F1F930F931E
:100D50000E940A0F61E087E00E943501C8010E94ED
:100D600028018DE592E00E94280185E090E00E9434
:100D7000DC030F900F900F900F900F900F9088232F
:100D800071F080913F0390914003019668E170E01B
:100D90000E94910E9093400380933F0331C087E0FF
:100DA00090E00E94DC03882391F080913F039091B2
:100DB000400301979093400380933F03992304F5E8
:100DC00087E190E09093400380933F0319C086E051
:100DD00090E00E94DC03882369F0F7013197EE0F61
:100DE000FF1FE15DFC4F80913F0390914003918391
:100DF000808310C084E090E00E94DC0381110AC06F
:100E00002FEF81EE94E0215080409040E1F700C048
:100E1000000087CF2FEF81EE94E02150804090407A
:100E2000E1F700C0000060E080E00E9435018BE344
:100E300092E00E94280180913E038F9380913D03B0
:100E40008F938FE592E09F938F938E010F5F1F4FDB
:100E50001F930F930E940A0F61E087E00E94350103
:100E6000C8010E9428018DE592E00E94280185E0DA
:100E700090E00E94DC030F900F900F900F900F9066
:100E80000F90882371F080913D0390913E0301966D
:100E90006CE370E00E94910E90933E0380933D03BB
:100EA00031C087E090E00E94DC03882391F08091BC
:100EB0003D0390913E03019790933E0380933D0341
:100EC000992304F58BE390E090933E0380933D03D8
:100ED00019C086E090E00E94DC03882369F0F701E6
:100EE0003197EE0FFF1FEF5DFC4F80913D03909116
:100EF0003E039183808310C084E090E00E94DC0375
:100F000081110AC02FEF81EE94E021508040904083
:100F1000E1F700C0000087CF21E0E21AF108F701F5
:100F2000EE0FFF1FED5EFC4F80819181892B59F5FB
:100F3000C701880F991FFC01ED5EFC4F81E090E036
:100F40009183808380911103909112030196909375
:100F50001203809311030E94210189E992E00E940B
:100F600028018FEF99E628E1815090402040E1F779
:100F700000C0000088E090E09093F9028093F802AE
:100F80000E94210117C00E94210189E992E00E947C
:100F900028018FEF99E628E1815090402040E1F749
:100FA00000C0000088E090E09093F9028093F8027E
:100FB0000E9421012A960FB6F894DEBF0FBECDBF66
:100FC000DF91CF911F910F91FF90EF900895EF92D5
:100FD000FF920F931F93CF93DF93CDB7DEB7649744
:100FE0000FB6F894DEBF0FBECDBF01978C01000F86
:100FF000111FF801E15DFC4F808191819F938F93D8
:101000000F2EFFE5EF2EF2E0FF2EF02DFF92EF9274
:10101000CE0101969F938F930E940A0FF801EF5D16
:10102000FC4F808191819F938F93FF92EF92CE012D
:101030000B969F938F930E940A0FF801ED5EFC4F71
:10104000808191810FB6F894DEBF0FBECDBF0197AE
:10105000C9F461E085E00E943501CE0101960E944D
:10106000280161E087E00E9435018CEA92E00E944D
:10107000280161E08AE00E943501CE010B960E94B2
:10108000280108C061E081E00E9435018EEA92E00B
:101090000E94280164960FB6F894DEBF0FBECDBF44
:1010A000DF91CF911F910F91FF90EF90089560E035
:1010B00083E00E9435018EEB92E00E94280180912E
:1010C0000001909101018130910549F481E090E0A7
:1010D0009093100380930F030E94E70708958230D6
:1010E000910549F482E090E09093100380930F0300
:1010F0000E94E70708958330910549F483E090E06A
:101100009093100380930F030E94E70708958430A3
:10111000910549F484E090E09093100380930F03CD
:101120000E94E70708958530910549F485E090E035
:101130009093100380930F030E94E7070895863071
:10114000910549F486E090E09093100380930F039B
:101150000E94E7070895079741F487E090E0909395
:10116000100380930F030E94E70708950197FC0185
:10117000EE0FFF1FED5EFC4F118210820E942101D5
:1011800089EC92E00E9428012FEF89E698E1215036
:1011900080409040E1F700C000000E94210188E0FB
:1011A00090E09093F9028093F80208958091F20202
:1011B0009091F3022091EA023091EB02821793079B
:1011C00059F0892B19F481E08093F6028FE39CE9B2
:1011D0000197F1F700C000008091F2029091F302B4
:1011E0009093EB028093EA0208958091F00290912F
:1011F000F1022091E6023091E7028217930759F03D
:10120000892B19F481E08093F7028FE39CE9019721
:10121000F1F700C000008091F0029091F1029093EC
:10122000E7028093E60208958091EE029091EF022A
:101230002091E8023091E9028217930759F0892B37
:1012400019F481E08093F5028FE39CE90197F1F7AF
:1012500000C000008091EE029091EF029093E902AD
:101260008093E80208958091EC029091ED02209124
:10127000E4023091E5028217930759F0892B19F4A3
:1012800081E08093F4028FE39CE90197F1F700C0BD
:1012900000008091EC029091ED029093E502809322
:1012A000E4020895E091F802F091F902ED30F105C1
:1012B00078F5EC5CFF4F0C94A50E0E94F4010895A4
:1012C0000E947D0208950E94E90308950E94AC02E5
:1012D00008950E94CF0208950E94FE0208950E9480
:1012E0002B0308950E94570808950E9458030895FB
:1012F0000E949F03089580910F03909110030E9414
:101300008206089580910F03909110030E94B60801
:101310000895CF93DF9300D000D000D0CDB7DEB7D3
:1013200081E08AB980EF8BB98FEF84B90E94D70032
:101330000E94520987E090E00E9471019093F302AD
:101340008093F20286E090E00E9471019093EF0298
:101350008093EE0285E090E00E9471019093F1028B
:101360008093F00284E090E00E9471019093ED027E
:101370008093EC020E94D6080E94F5080E9414098E
:101380000E943309809152038F93809151038F9370
:10139000809154038F93809153038F938AED92E051
:1013A0009F938F93CE0101969F938F930E940A0F74
:1013B0000FB6F894DEBF0FBECDBF00E010E0809105
:1013C0000F0390911003801791079CF1F801EE0F25
:1013D000FF1FE15DFC4FE080F180CE0101960E948D
:1013E000BF0E9C0164E670E00E94910EE616F706BF
:1013F000E1F4F801EE0FFF1FEF5DFC4F0190F0816B
:10140000E02DC90164E670E00E94910EE817F9072B
:1014100061F488E088B99FEF20E782E09150204096
:101420008040E1F700C0000001C018B80F5F1F4FF7
:10143000C6CF8091F702882349F02091F8023091BD
:10144000F9022130310519F080E001C080E08823E5
:10145000C9F01092F70282E090E00E945C01809156
:101460000001909101010197909301018093000187
:10147000892B09F014C183E090E0909301018093DF
:1014800000010DC19091F702992341F02091F802DB
:101490003091F9022230310509F4892F882319F09F
:1014A0001092F702FCC09091F702992341F020912D
:1014B000F8023091F9022330310509F4892F88238D
:1014C000C9F01092F70282E090E00E945C018091E6
:1014D0000001909101010197909301018093000117
:1014E000892B09F0DCC082E090E0909301018093A9
:1014F0000001D5C09091F702992341F02091F802A4
:101500003091F9022430310509F4892F8823C9F07C
:101510001092F70282E090E00E945C01809100014D
:101520009091010101979093010180930001892B13
:1015300009F0B5C083E090E0909301018093000131
:10154000AEC09091F602992341F02091F8023091BB
:10155000F9022530310509F4892F882381F0109292
:10156000F60282E090E00E945C018091020190917D
:1015700003010196909303018093020190C0909122
:10158000F702992341F02091F8023091F9022630B8
:10159000310509F4892F882381F01092F70282E047
:1015A00090E00E945C0180910401909105010197F7
:1015B000909305018093040172C09091F7029923E2
:1015C00041F02091F8023091F9022830310509F4F8
:1015D000892F8823C9F01092F70282E090E00E94E0
:1015E0005C018091000190910101019790930101AC
:1015F00080930001892B09F052C087E090E090931E
:101600000101809300014BC09091F702992341F0B2
:101610002091F8023091F9022930310509F4892F1F
:101620008823C1F01092F70282E090E00E945C01F2
:1016300080910001909101010197909301018093A5
:101640000001892B61F585E090E090930101809382
:10165000000125C09091F702992341F02091F802F2
:101660003091F9022A30310509F4892F8823B9F025
:101670001092F70282E090E00E945C0180910001EC
:101680009091010101979093010180930001892BB2
:1016900031F482E090E09093010180930001809109
:1016A000F602882349F02091F8023091F9022130A6
:1016B000310519F080E001C080E08823C9F0109264
:1016C000F60282E090E00E945C018091000190911E
:1016D000010101969093010180930001049709F0A4
:1016E00014C181E090E090930101809300010DC14D
:1016F0009091F602992341F02091F8023091F9027D
:101700002230310509F4892F882319F01092F6024E
:10171000FCC09091F602992341F02091F80230919B
:10172000F9022330310509F4892F8823C9F010927A
:10173000F60282E090E00E945C01809100019091AD
:10174000010101969093010180930001039709F034
:10175000DCC081E090E09093010180930001D5C04E
:101760009091F602992341F02091F8023091F9020C
:101770002430310509F4892F8823C9F01092F6022C
:1017800082E090E00E945C01809100019091010153
:1017900001969093010180930001049709F0B5C070
:1017A00081E090E09093010180930001AEC09091A0
:1017B000F702992341F02091F8023091F902253087
:1017C000310509F4892F882381F01092F70282E015
:1017D00090E00E945C0180910201909103010197C9
:1017E000909303018093020190C09091F602992397
:1017F00041F02091F8023091F9022630310509F4C8
:10180000892F882381F01092F60282E090E00E94F6
:101810005C0180910401909105010196909305016E
:101820008093040172C09091F602992341F02091B7
:10183000F8023091F9022830310509F4892F882304
:10184000C9F01092F60282E090E00E945C01809163
:101850000001909101010196909301018093000194
:10186000089709F052C081E090E0909301018093C5
:1018700000014BC09091F602992341F02091F802AB
:101880003091F9022930310509F4892F8823C1F0FC
:101890001092F60282E090E00E945C0180910001CB
:1018A00090910101019690930101809300010697A8
:1018B00061F581E090E0909301018093000125C0E3
:1018C0009091F602992341F02091F8023091F902AB
:1018D0002A30310509F4892F8823B9F01092F602D5
:1018E00082E090E00E945C018091000190910101F2
:1018F00001969093010180930001039731F481E0F8
:1019000090E090930101809300018091F50288237B
:1019100009F43CC11092F5028091F8029091F9020D
:10192000009769F40E94210181E090E09093F90210
:101930008093F802909301018093000127C18130C8
:101940009105B1F420910001309101012130310560
:1019500079F40E94210183E090E09093F902809352
:10196000F80281E090E090930101809300010EC1A4
:101970008130910581F420910001309101012230E4
:10198000310549F40E94210182E090E09093F90230
:101990008093F802FBC081309105B1F420910001E1
:1019A000309101012330310579F40E94210184E056
:1019B00090E09093F9028093F80281E090E0909398
:1019C000010180930001E2C08230910549F40E9438
:1019D000210181E090E09093F9028093F802D6C053
:1019E00083309105B1F42091000130910101213043
:1019F000310579F40E94210188E090E09093F9028A
:101A00008093F80281E090E09093010180930001BF
:101A1000BDC083309105B1F42091000130910101E6
:101A20002230310579F40E94210189E090E0909301
:101A3000F9028093F80281E090E090930101809395
:101A40000001A4C08430910581F4209100013091FF
:101A500001012130310549F40E94210185E090E027
:101A60009093F9028093F80291C08430910581F43B
:101A700020910001309101012230310549F40E948A
:101A8000210186E090E09093F9028093F8027EC0F5
:101A90008430910551F420910001309101012330EF
:101AA000310519F40E94C60371C08530910579F49F
:101AB0000E94210184E090E09093F9028093F80263
:101AC00081E090E090930101809300015FC0863037
:101AD000910579F40E94210184E090E09093F9024D
:101AE0008093F80282E090E09093010180930001DE
:101AF0004DC08730910579F40E94210183E090E088
:101B00009093F9028093F80281E090E090930101B4
:101B1000809300013BC08830910579F40E94210137
:101B20008AE090E09093F9028093F80281E090E0DF
:101B3000909301018093000129C08A30910581F4BE
:101B400020910001309101012130310549F40E94BA
:101B500021018BE090E09093F9028093F80216C087
:101B60000A97A1F48091000190910101029771F40C
:101B70000E9421018CE090E09093F9028093F8029A
:101B800081E090E090930101809300018091F40244
:101B9000882309F4CDCB1092F4028091F802909141
:101BA000F902009779F48091FA02882329F01092C3
:101BB000FA020E94D803BCCB81E08093FA020E9413
:101BC000C203B6CB8130910539F40E9421011092F5
:101BD000F9021092F802ACCB8230910579F40E94A0
:101BE000210181E090E09093F9028093F80282E075
:101BF00090E090930101809300019ACB833091058E
:101C000069F40E94210181E090E09093F9028093B1
:101C1000F80290930101809300018ACB84309105F2
:101C200079F40E94210181E090E09093F902809381
:101C3000F80283E090E0909301018093000178CB5B
:101C40008530910579F40E94210184E090E0909321
:101C5000F9028093F80281E090E090930101809373
:101C6000000166CB8630910579F40E94210184E061
:101C700090E09093F9028093F80282E090E09093D4
:101C800001018093000154CB8730910579F40E94C3
:101C9000210183E090E09093F9028093F80281E0C3
:101CA00090E0909301018093000142CB8830910530
:101CB00079F40E94210183E090E09093F9028093EF
:101CC000F80282E090E0909301018093000130CB14
:101CD0008930910569F40E94210183E090E090939E
:101CE000F9028093F802909301018093000120CBC8
:101CF0000A9709F01DCB0E94210188E090E09093A3
:101D0000F9028093F80281E090E0909301018093C2
:101D100000010ECB6FEF7FEF81E090E00E946C003E
:101D2000089597FB072E16F4009407D077FD09D08D
:101D30000E94AB0E07FC05D03EF4909581959F4F15
:101D40000895709561957F4F0895EE0FFF1F0590E0
:101D5000F491E02D0994AA1BBB1B51E107C0AA1FF7
:101D6000BB1FA617B70710F0A61BB70B881F991F3C
:101D70005A95A9F780959095BC01CD010895FC0175
:101D800088279927E89421912032E9F3293010F02F
:101D90002E30C8F32B3241F02D3239F4689404C050
:101DA0000E94E80E820F911D219120532A30C0F32A
:101DB0001EF4909581959F4F0895BB274A3031F4CA
:101DC000992322F4BDE2909581959F4F0C94F10EDA
:101DD0007AE0979F902D879F802D910D1124089573
:101DE000BB27FB015527AA27880F991FAA1FA417F5
:101DF00010F0A41B83955051B9F7A05DAA3308F0E9
:101E0000A95DA193009779F7B111B1931192CB011C
:101E10000C942311AEE0B0E0E0E1FFE00C94DB11A4
:101E20000D891E8986E08C831A8309838FEF9FE7D3
:101E30009E838D83AE01475E5F4F6F89788DCE01A3
:101E400001960E942C0FEF81F885E00FF11F1082A0
:101E50002E96E4E00C94F711ABE0B0E0E2E3FFE093
:101E60000C94CD116C017B018A01FC011782168252
:101E7000838181FFCCC1CE0101963C01F6019381A3
:101E8000F70193FD859193FF81917F01882309F4E8
:101E9000BAC1853239F493FD859193FF81917F0119
:101EA000853229F4B60190E00E943311E7CF912CDE
:101EB000212C312CFFE1F315D8F08B3279F038F476
:101EC000803279F08332A1F4232D20611DC08D3240
:101ED00061F0803369F4232D216016C0832D826068
:101EE000382EE32DE4603E2E2AC0F32DF8601DC08D
:101EF00037FC2DC020ED280F2A3040F08E32B9F487
:101F000036FC81C1232D2064322E19C036FE06C056
:101F10008AE0989E200D1124922E11C0EAE02E9E98
:101F2000200D1124222EF32DF0623F2E08C08C3696
:101F300021F4832D8068382E02C0883641F4F701E1
:101F400093FD859193FF81917F018111B3CF982FEC
:101F50009F7D9554933028F40C5F1F4F9FE3998326
:101F60000DC0833631F0833771F0833509F059C0E5
:101F700021C0F801808189830E5F1F4F88248394DC
:101F8000912C530113C02801F2E04F0E511CF801AF
:101F9000A080B18036FE03C0692D70E002C06FEFF3
:101FA0007FEFC5010E9418114C018201F32DFF77CC
:101FB0003F2E16C0280122E0420E511CF801A080DD
:101FC000B18036FE03C0692D70E002C06FEF7FEF75
:101FD000C5010E940D114C01F32DF0683F2E8201C6
:101FE00033FC1BC0822D90E088169906B0F4B60130
:101FF00080E290E00E9433112A94F4CFF50137FC7F
:10200000859137FE81915F01B60190E00E94331106
:1020100021102A9421E0821A91088114910471F709
:10202000E8C0843611F0893641F5F80137FE07C063
:1020300060817181828193810C5F1F4F08C0608134
:102040007181072E000C880B990B0E5F1F4FF32D2B
:10205000FF763F2E97FF09C090958095709561950A
:102060007F4F8F4F9F4FF0683F2E2AE030E0A30153
:102070000E946F11882E861845C0853731F4232DB4
:102080002F7EB22E2AE030E025C0932D997FB92E05
:102090008F36C1F018F4883579F0B5C0803719F063
:1020A000883721F0B0C0E92FE061BE2EB4FE0DC02C
:1020B000FB2DF460BF2E09C034FE0AC0292F266014
:1020C000B22E06C028E030E005C020E130E002C0BA
:1020D00020E132E0F801B7FE07C0608171818281A2
:1020E00093810C5F1F4F06C06081718180E090E09A
:1020F0000E5F1F4FA3010E946F11882E8618FB2DC3
:10210000FF773F2E36FE0DC0232D2E7FA22E891481
:1021100058F434FE0BC032FC09C0832D8E7EA82EED
:1021200005C0B82CA32C03C0B82C01C0B92CA4FE48
:102130000FC0FE01E80DF11D8081803321F49A2D3E
:10214000997EA92E09C0A2FE06C0B394B39404C020
:102150008A2D867809F0B394A3FC11C0A0FE06C0B6
:10216000B21488F4280C922C9B180EC0B21460F4A0
:10217000B60180E290E00E943311B394F7CFB2141D
:1021800018F42B1802C0982C212CA4FE10C0B60104
:1021900080E390E00E943311A2FE17C0A1FC03C0AF
:1021A00088E790E002C088E590E0B6010CC08A2D77
:1021B000867859F0A1FE02C08BE201C080E2A7FC44
:1021C0008DE2B60190E00E943311891438F4B60113
:1021D00080E390E00E9433119A94F7CF8A94F30140
:1021E000E80DF11D8081B60190E00E94331181104D
:1021F000F5CF222009F442CEB60180E290E00E94A1
:1022000033112A94F6CFF6018681978102C08FEFB1
:102210009FEF2B96E2E10C94E911FC0105906150CF
:1022200070400110D8F7809590958E0F9F1F0895EC
:10223000FC016150704001900110D8F78095909595
:102240008E0F9F1F0895DC01FC01672F719177238A
:10225000E1F7329704C07C916D9370836291AE1761
:10226000BF07C8F308950F931F93CF93DF93FB012C
:10227000238121FD03C08FEF9FEF2CC022FF16C0EA
:1022800046815781248135814217530744F4A08148
:10229000B1819D012F5F3F4F318320838C93268135
:1022A00037812F5F3F4F3783268314C08B01EC01AA
:1022B000FB010084F185E02D0995892BE1F6D80119
:1022C00016968D919C911797019617969C938E93D5
:1022D0001697CE01DF91CF911F910F910895FA01CA
:1022E000AA27283051F1203181F1E8946F936E7F55
:1022F0006E5F7F4F8F4F9F4FAF4FB1E03ED0B4E046
:102300003CD0670F781F891F9A1FA11D680F791F86
:102310008A1F911DA11D6A0F711D811D911DA11D97
:1023200020D009F468943F912AE0269F11243019A7
:10233000305D3193DEF6CF010895462F4770405D42
:102340004193B3E00FD0C9F7F6CF462F4F70405DF1
:102350004A3318F0495D31FD4052419302D0A9F74C
:10236000EACFB4E0A6959795879577956795BA9546
:10237000C9F700976105710508959B01AC010A2E0C
:1023800006945795479537952795BA95C9F7620FE3
:10239000731F841F951FA01D08952F923F924F9287
:1023A0005F926F927F928F929F92AF92BF92CF92E5
:1023B000DF92EF92FF920F931F93CF93DF93CDB7EE
:1023C000DEB7CA1BDB0B0FB6F894DEBF0FBECDBF66
:1023D00009942A88398848885F846E847D848C8437
:1023E0009B84AA84B984C884DF80EE80FD800C8140
:1023F0001B81AA81B981CE0FD11D0FB6F894DEBF23
:0C2400000FBECDBFED010895F894FFCF92
:10240C0001000A000A00253032783A253032783A39
:10241C0025303278004D41494E204D454E55003CFB
:10242C003C20416C61726D203E3E003C3C4461742A
:10243C006520262054696D653E3E003C3C2053656A
:10244C007474696E6773203E3E00414C41524D20BE
:10245C004D454E55003C4D616E61676520416C6188
:10246C00726D733E003C416C61726D20546F6E65F1
:10247C00733E003C3C566F6C756D653E3E003C3CBB
:10248C00436F6E74726173743E3E003C3C526573D4
:10249C0065743E3E002D2D2D566F6C756D652D2D82
:1024AC002D002D2D436F6E74726173742D2D0041B0
:1024BC004C41524D20544F4E4553003C416C61727F
:1024CC006D746F6E65313E003C416C61726D746F62
:1024DC006E65323E003C416C61726D746F6E65339B
:1024EC003E003C416C61726D746F6E65343E003C15
:1024FC00416C61726D746F6E65353E00414C41529A
:10250C004D2053455454494E4753003C456469741F
:10251C0020416C61726D3E003C44656C65746520B5
:10252C00416C61726D3E00202020456E74657220F6
:10253C0048723A20202020002578002020456E7417
:10254C006572204D696E73203A20200020202045B2
:10255C006E74657220446174653A20202020002539
:10256C0064002020456E746572204D6F6E74683A5D
:10257C0020202020002020456E7465722059656152
:10258C00723A2020202000202054696D6520697348
:10259C002073657421202020002020416C61726D15
:1025AC002069732073657421202020003A003C3C84
:1025BC00456D70747920416C61726D3E3E00414CEA
:1025CC0041524D204C495354002020416C61726D96
:1025DC002044656C657465642000253032782530A4
:0425EC003278000041
:00000001FF
